:020000040800F2
:1000000000000120FD280008052000080720000846
:10001000092000080B2000080D2000080000000047
:100020000000000000000000000000000F20000899
:10003000112000080000000013200008152000080F
:1000400045290008452900084529000845290008D8
:1000500045290008452900084529000845290008C8
:1000600045290008452900084529000845290008B8
:1000700045290008452900084529000845290008A8
:100080004529000845290008452900084529000898
:100090004529000845290008452900084529000888
:1000A0004529000845290008452900084529000878
:1000B0001D2000082D2000083D20000845290008CB
:1000C0004529000845290008452900084529000858
:1000D000452900084D200008452900084529000849
:1000E0004529000845290008452900084529000838
:1000F0004529000845290008452900084529000828
:1001000045290008452900085D2000084529000808
:1001100045290008452900086D20000845290008E8
:1001200045290008452900084529000845290008F7
:1001300000000000000000000000000000000000BF
:1001400000000000000000000000000000000000AF
:10015000000000000000000000000000000000009F
:10016000000000000000000000000000000000008F
:10017000000000000000000000000000000000007F
:10018000000000000000000000000000000000006F
:10019000000000000000000000000000000000005F
:1001A000000000000000000000000000000000004F
:1001B000000000000000000000000000000000003F
:1001C000000000000000000000000000000000002F
:1001D000000000000000000000000000000000001F
:0401E0005FF8E0F1F3
:1001E80081F0004102E000BF83F0004330B54FEAE0
:1001F80041044FEA430594EA050F08BF90EA020F4D
:100208001FBF54EA000C55EA020C7FEA645C7FEADF
:10021800655C00F0E2804FEA5454D4EB5555B8BF02
:100228006D420CDD2C4480EA020281EA030382EA73
:10023800000083EA010180EA020281EA0303362D05
:1002480088BF30BD11F0004F4FEA01314FF4801CD8
:100258004CEA113102D0404261EB410113F0004FEA
:100268004FEA03334CEA133302D0524263EB4303A1
:1002780094EA050F00F0A780A4F10104D5F1200E3F
:100288000DDB02FA0EFC22FA05F2801841F100019A
:1002980003FA0EF2801843FA05F359410EE0A5F16E
:1002A80020050EF1200E012A03FA0EFC28BF4CF09F
:1002B800020C43FA05F3C01851EBE37101F0004555
:1002C80007D54FF0000EDCF1000C7EEB00006EEB62
:1002D8000101B1F5801F1BD3B1F5001F0CD34908EC
:1002E8005FEA30004FEA3C0C04F101044FEA445243
:1002F80012F5800F80F09A80BCF1004F08BF5FEACA
:10030800500C50F1000041EB045141EA050130BDA9
:100318005FEA4C0C404141EB0101013C28BFB1F5BB
:10032800801FE9D291F0000F04BF01460020B1FA06
:1003380081F308BF2033A3F10B03B3F120020CDAD9
:100348000C3208DD02F1140CC2F10C0201FA0CF0B7
:1003580021FA02F10CE002F11402D8BFC2F1200C1C
:1003680001FA02F120FA0CFCDCBF41EA0C019040D2
:10037800E41AA2BF01EB0451294330BD6FEA04041B
:100388001F3C1CDA0C340EDC04F11404C4F1200206
:1003980020FA04F001FA02F340EA030021FA04F318
:1003A80045EA030130BDC4F10C04C4F1200220FA6F
:1003B80002F001FA04F340EA0300294630BD21FAAD
:1003C80004F0294630BD94F0000F83F4801306BF73
:1003D80081F480110134013D4EE77FEA645C18BF67
:1003E8007FEA655C29D094EA050F08BF90EA020FFE
:1003F80005D054EA000C04BF1946104630BD91EAF6
:10040800030F1EBF0021002030BD5FEA545C05D1F8
:100418004000494128BF41F0004130BD14F5800437
:100428003CBF01F5801130BD01F0004545F0FE41AB
:1004380041F470014FF0000030BD7FEA645C1ABFE0
:10044800194610467FEA655C1CBF0B46024650EA17
:10045800013406BF52EA033591EA030F41F4002143
:1004680030BD00BF90F0000F04BF0021704730B5C9
:100478004FF4806404F132044FF000054FF000019E
:1004880050E700BF90F0000F04BF0021704730B55F
:100498004FF4806404F1320410F0004548BF404234
:1004A8004FF000013EE700BF42004FEAE2014FEA89
:1004B80031014FEA02701FBF12F07F4393F07F4F64
:1004C80081F06051704732F07F4208BF704793F067
:1004D8007F4F04BF41F40021704730B54FF460747A
:1004E80001F0004521F000411CE700BF50EA01027D
:1004F80008BF704730B54FF000050AE050EA010226
:1005080008BF704730B511F0004502D5404261EB95
:1005180041014FF4806404F132045FEA915C3FF4D6
:10052800D8AE4FF003025FEADC0C18BF03325FEA73
:10053800DC0C18BF033202EBDC02C2F1200300FA24
:1005480003FC20FA02F001FA03FE40EA0E0021FA49
:1005580002F11444BDE600BF4FF0FF3C06E000BFC7
:100568004FF0010C02E000BF4FF0010C4DF804CD34
:100578004FEA410C7FEA6C5C4FEA430C18BF7FEAF4
:100588006C5C1BD001B050EA410C0CBF52EA430C22
:1005980091EA030F02BF90EA020F0020704710F1A2
:1005A800000F91EA030F58BF994208BF90422CBF31
:1005B800D8176FEAE37040F0010070474FEA410C2A
:1005C8007FEA6C5C02D150EA013C07D14FEA430C48
:1005D8007FEA6C5CD6D152EA033CD3D05DF8040BB9
:1005E800704700BF8446104662468C4619466346EB
:1005F80000E000BF01B5FFF7B7FF002848BF10F1C2
:10060800000F01BD4DF808EDFFF7F4FF0CBF012006
:1006180000205DF808FB00BF4DF808EDFFF7EAFF82
:1006280034BF012000205DF808FB00BF4DF808ED3D
:10063800FFF7E0FF94BF012000205DF808FB00BF32
:100648004DF808EDFFF7CEFF94BF012000205DF8BC
:1006580008FB00BF4DF808EDFFF7C4FF34BF0120C9
:1006680000205DF808FB00BF4A0011D212F5001205
:1006780011D20DD56FF47873B3EB62520ED44FEAF2
:10068800C12343F0004343EA505323FA02F0704772
:100698004FF00000704750EA013002D14FF0FF30B0
:1006A80070474FF00000704700F1340191E83800BE
:1006B8009C46A6464CF8045D90E8FF0FE54600BD51
:1006C80090EC210B704700BF80EC210B704700BFF6
:1006D80090EC200B704700BF80EC200B704700BFE8
:1006E800D0EC200B704700BFC0EC200B704700BF58
:1006F800F0EC0201F0EC0211F0EC0221F0EC023116
:10070800F0EC0241F0EC0251F0EC0261F0EC027105
:10071800F0EC0281F0EC0291F0EC02A1F0EC02B1F5
:10072800F0EC02C1F0EC02D1F0EC02E1F0EC02F1E5
:10073800704700BFE0EC0201E0EC0211E0EC02219E
:10074800E0EC0231E0EC0241E0EC0251E0EC026145
:10075800E0EC0271E0EC0281E0EC0291E0EC02A135
:10076800E0EC02B1E0EC02C1E0EC02D1E0EC02E125
:10077800E0EC02F1704700BFB0FC0181B0FC0191D0
:10078800B0FC01A1B0FC01B1704700BFA0FC018121
:10079800A0FC0191A0FC01A1A0FC01B1704700BF21
:1007A800EC4600B52DE900502DE9FF1F4FF000037E
:1007B8002DE90C0001A90BF019FADDF840E012B0A0
:1007C800704700BFEC4600B52DE900502DE9FF1F2A
:1007D8004FF000032DE90C0001A90BF047FADDF8F2
:1007E80040E012B0704700BFEC4600B52DE900505C
:1007F8002DE9FF1F4FF000032DE90C0001A90BF0B4
:1008080055FADDF840E012B0704700BFEC4600B57D
:100818002DE900502DE9FF1F4FF000032DE90C00D2
:1008280001AB0BF017FADDF840E012B0704700BFDB
:10083800EC4600B52DE900502DE9FF1F4FF00003ED
:100848002DE90C0001AA0BF093FADDF840E012B094
:10085800704700BF80EA010C1CF0030F37D110F07D
:10086800030C20F0030021F0030150F8042B08BF0B
:1008780051F8043B0ED08CF0030C6FF07F434FEA25
:10088800CC0C23FA0CFC51F8043B42EA0C0243EA74
:100898000C0300BFA2F1013C9A4201BF2CEA020CF2
:1008A8001CF0803F50F8042B51F8043BF2D04FEA7B
:1008B80002604FEA1222012828BFB0EB036F08BF7D
:1008C8001B0AF4D003F0FF03000EC01A704710F0A3
:1008D800030F0AD010F8012B11F8013B012A28BF99
:1008E8009A42F4D0A2EB030070474DF8045D50F82B
:1008F800042B01F0030521F0030151F8043B022DFC
:1009080026D04DD822F07F45B5EB132FA2F1013C3C
:100918002CEA020C0DD11CF0803C08BF51F8043BB6
:100928000AD185EA0205B5EB036F0CD150F8042B08
:10093800E8E74FEA13235BE03CF07F4C54D10B7897
:100948004FEA126554E04FEA126503F0FF034FE0E7
:100958004FEA0245A2F1013C4FEA15452CEA020C88
:10096800B5EB134F18D11CF0803C08BF51F8043B7D
:1009780007D185EA0205B5EB034F09D150F8042BDE
:10098800E6E75FEA0C4C2FD10B884FEA12452FE0BF
:100998004FEA03434FEA12454FEA134328E000BFEA
:1009A80002F0FF05B5EB136FA2F1013C2CEA020C33
:1009B8000DD11CF0803C08BF51F8043B0AD185EAF0
:1009C8000205B5EB032F0AD150F8042BE8E74FEAEC
:1009D80013630DE012F0FF0F06D051F8043B4FEA05
:1009E800122523F07F4303E04FF0000020BC70473E
:1009F80005F0FF0203F0FF00012828BF904204BF62
:100A08002D0A1B0AF4D0A2EB000020BC704700BFDF
:100A1800844641EA000313F0030349D1403A23D343
:100A28000B6803604B6843608B688360CB68C36066
:100A38000B6903614B6943618B698361CB69C3614E
:100A48000B6A03624B6A43628B6A8362CB6AC36236
:100A58000B6B03634B6B43638B6B8363CB6BC3631E
:100A680040304031403ADBD230320BD30B68036060
:100A78004B6843608B688360CB68C360103010316B
:100A8800103AF3D20C3205D351F8043B40F8043B3A
:100A9800043AF9D2043208D0D2071CBF11F8013B3E
:100AA80000F8013B01D30B8803806046704700BF04
:100AB800082A13D38B07B1D010F00303AED0C3F1CB
:100AC8000403D21ADB071CBF11F8013B00F8013BF5
:100AD800A4D331F8023B20F8023B9FE7043AD9D36C
:100AE800013A11F8013B00F8013BF9D20B78037089
:100AF8004B7843708B7883706046704770B54FF0C1
:100B0800FF0C4CF4E06C1CEA11541DBF1CEA135591
:100B180094EA0C0F95EA0C0F00F0DEF82C4481EAF9
:100B2800030621EA4C5123EA4C5350EA013518BF19
:100B380052EA033541F4801143F4801338D0A0FB06
:100B480002CE4FF00005E1FB02E506F00042E0FBB3
:100B580003E54FF00006E1FB03569CF0000F18BFB9
:100B68004EF0010EA4F1FF04B6F5007F64F5407461
:100B780004D25FEA4E0E6D4146EB060642EAC621F4
:100B880041EA55514FEAC52040EA5E504FEACE2E61
:100B9800B4F1FD0C88BFBCF5E06F1ED8BEF1004F64
:100BA80008BF5FEA500E50F1000041EB045170BDE0
:100BB80006F0004646EA010140EA020081EA030124
:100BC800B4EB5C04C2BFD4EB0C0541EA045170BD20
:100BD80041F480114FF0000E013C00F3AB8014F19A
:100BE800360FDEBF002001F0004170BDC4F10004E3
:100BF800203C35DA0C341BDC04F11404C4F1200564
:100C080000FA05F320FA04F001FA05F240EA0200BE
:100C180001F0004221F0004110EBD37021FA04F6F4
:100C280042EB06015EEA430E08BF20EAD37070BDAE
:100C3800C4F10C04C4F1200500FA04F320FA05F00D
:100C480001FA04F240EA020001F0004110EBD3700F
:100C580041F100015EEA430E08BF20EAD37070BD7F
:100C6800C4F1200500FA05F24EEA020E20FA04F358
:100C780001FA05F243EA020321FA04F001F0004107
:100C880021FA04F220EA020000EBD3705EEA430E78
:100C980008BF20EAD37070BD94F0000F0FD101F0A7
:100CA8000046400041EB010111F4801F08BF013CE0
:100CB800F7D041EA060195F0000F18BF704703F01E
:100CC8000046520043EB030313F4801F08BF013DA5
:100CD800F7D043EA0603704794EA0C0F0CEA135561
:100CE80018BF95EA0C0F0CD050EA410618BF52EA1B
:100CF8004306D1D181EA030101F000414FF0000021
:100D080070BD50EA410606BF1046194652EA43062E
:100D180019D094EA0C0F02D150EA013613D195EAA2
:100D28000C0F05D152EA03361CBF104619460AD1EA
:100D380081EA030101F0004141F0FE4141F47001F4
:100D48004FF0000070BD41F0FE4141F4780170BDE4
:100D580070B54FF0FF0C4CF4E06C1CEA11541DBF49
:100D68001CEA135594EA0C0F95EA0C0F00F0A7F84B
:100D7800A4EB050481EA030E52EA03354FEA013178
:100D880000F088804FEA03334FF0805545EA13138B
:100D980043EA12634FEA022245EA111545EA106553
:100DA8004FEA00260EF000419D4208BF964244F1EA
:100DB800FD0404F5407402D25B084FEA3202B61A09
:100DC80065EB03055B084FEA32024FF480104FF4DD
:100DD800002CB6EB020E75EB030E22BFB61A754651
:100DE80040EA0C005B084FEA3202B6EB020E75EBE4
:100DF800030E22BFB61A754640EA5C005B084FEA4C
:100E08003202B6EB020E75EB030E22BFB61A754618
:100E180040EA9C005B084FEA3202B6EB020E75EB23
:100E2800030E22BFB61A754640EADC0055EA060EE4
:100E380018D04FEA051545EA16754FEA06164FEA27
:100E4800C30343EA52734FEAC2025FEA1C1CC0D1D3
:100E580011F4801F0BD141EA00014FF000004FF060
:100E6800004CB6E711F4801F04BF01430020B4F121
:100E7800FD0C88BFBCF5E06F3FF6AFAEB5EB030CD9
:100E880004BFB6EB020C5FEA500C50F1000041EBD6
:100E9800045170BD0EF0004E4EEA113114EB5C04A3
:100EA800C2BFD4EB0C0541EA045170BD41F4801176
:100EB8004FF0000E013C90E645EA060E8DE60CEA7E
:100EC800135594EA0C0F08BF95EA0C0F3FF43BAF9B
:100ED80094EA0C0F0AD150EA01347FF434AF95EA52
:100EE8000C0F7FF425AF104619462CE795EA0C0F36
:100EF80006D152EA03353FF4FDAE1046194622E703
:100F080050EA410618BF52EA43067FF4C5AE50EADC
:100F180041047FF40DAF52EA43057FF4EBAE12E7CC
:100F28004FEA410C7FEA6C5C02D150EA013C0AD1DD
:100F38004FEA430C7FEA6C5C02D152EA033C02D1CF
:100F48004FF0000070474FF0010070474FEA410230
:100F580012F5001215D211D56FF47873B3EB625203
:100F680012D94FEAC12343F0004343EA505311F02A
:100F7800004F23FA02F018BF404270474FF00000BC
:100F8800704750EA013005D111F0004008BF6FF0FA
:100F9800004070474FF00000704700BF0348044B03
:100FA800834202D0034B03B118477047C80600209C
:100FB800C8060020000000000548064B1B1AD90F80
:100FC80001EBA301491002D0034B03B11847704746
:100FD800C8060020C80600200000000010B5064C16
:100FE800237843B9FFF7DAFF044B13B10448AFF392
:100FF80000800123237010BDC806002000000000F7
:101008007C2E010808B5054B1BB105490548AFF30F
:101018000080BDE80840FFF7CFBF00BF0000000018
:10102800CC0600207C2E010870B504460D4600222F
:101038000023FFF70FFB48B10A4B1E6820462946DC
:10104800FFF712FB70630023B36370BD054B1E6886
:1010580000237363204605F10041FFF705FBB063E9
:10106800F3E700BF640B002070B504460D4600226C
:101078000023FFF7EFFA48B10A4B1E6820462946BD
:10108800FFF7F2FA70630023B36370BD054B1E6867
:1010980000237363204605F10041FFF7E5FAB063CA
:1010A800F3E700BFB409002070B504460D460022DE
:1010B8000023FFF7CFFA48B10A4B1E68204629469D
:1010C800FFF7D2FAF0630023336470BD054B1E6846
:1010D8000023F363204605F10041FFF7C5FA3064A9
:1010E800F3E700BF640B002070B504460D460022EC
:1010F8000023FFF7AFFA48B10A4B1E68204629467D
:10110800FFF7B2FAF0630023336470BD054B1E6825
:101118000023F363204605F10041FFF7A5FA306488
:10112800F3E700BFB4090020012800D070474FF64C
:10113800FF739942FAD170B5174E304600F02AFD78
:10114800164C174D22462946304603F0B5FB154E7E
:10115800304600F01FFD22462946304603F0ACFB1E
:10116800114E304600F016FD22462946304603F05F
:10117800A3FB0E4E304600F00DFD224629463046B0
:1011880003F09AFB0A4D284600F0AAFA22460949BC
:10119800284603F091FB70BDF808002000000020ED
:1011A800CB1B000870080020E8070020600700201B
:1011B800E8060020991700082DE9F04784B01CA51F
:1011C800D5E90045DFF870A000260027CDE90267C1
:1011D8004FF00008DFF86490CDE9008922462B46DD
:1011E800504600F005FBCDE90289CDE900672246AB
:1011F8002B46504600F0FCFACDE902674FF0000894
:10120800DFF83C90CDE9008922462B46504600F095
:10121800EFFACDE90289CDE9006722462B46504610
:1012280000F0E6FA04B0BDE8F08700BFAFF3008035
:101238009A9999999999B93FE80600200000894040
:10124800000089C0000000002DE9F04F85B0DFF8EC
:1012580038B100234D4CCDE902344FF00008DFF8D7
:101268003091CDE9008900224A4B584600F0B0FC85
:101278000026494FCDE9006741A3D3E9002358462A
:1012880000F0B7FC00220023584600F0C3FC434995
:10129800584600F0C9FC424D00233C4CCDE90234CD
:1012A800CDE9008900223B4B284600F091FCCDE9AE
:1012B800006733A3D3E90023284600F09AFC0022F4
:1012C8000023284600F0A6FC3649284600F0ACFC6E
:1012D8000121284600F09CFCDFF8CCA000232B4C11
:1012E800CDE90234CDE9008900222A4B504600F0AE
:1012F8006FFCCDE9006722A3D3E90023504600F034
:1013080078FC00220023504600F084FC2749504610
:1013180000F08AFC264C00221C4BCDE90223CDE9C3
:10132800008900221B4B204600F052FCCDE90067E3
:1013380013A3D3E90023204600F05BFC002200231E
:10134800204600F067FC1B49204600F06DFC012197
:10135800204600F05DFC184E5946304600F019FA58
:101368002946304600F017FA5146304600F015FA83
:101378002146304600F013FA05B0BDE8F08F00BFF3
:101388000000000000408FC0F808002000005E4008
:1013980000407F400080514000408F4031100008DD
:1013A80070080020B1100008E8070020711000083C
:1013B80060070020F1100008E806002038B5194B36
:1013C8001B68596A00245C62174D09B2284600F070
:1013D8002DFC284600F043FC144B1B68596A5C62DC
:1013E800134D09B2284600F021FC284600F037FCCE
:1013F800104B1B68596A5C620F4D09B2284600F011
:1014080015FC284600F02BFC0C4B1B68596A5C62E3
:101418000B4C09B2204600F009FC204600F01FFCE6
:1014280038BD00BFD40A0020F8080020440A002074
:10143800700800201C0B0020E80700208C0A002000
:101448006007002008B54FF6FF710120FFF76CFE1A
:1014580008BD000000B585B00023019302930393F3
:101468001148124A026083600122027303754FF427
:101478006021C1614360026101F078FB68B9022311
:101488000193012302930023039301A9064801F065
:10149800A1FA28B905B05DF804FB00F079F8EEE789
:1014A80000F076F8F6E700BF80090020002401402C
:1014B80000B587B000230293039304930593026851
:1014C800114B9A4202D007B05DF804FB03F56C4358
:1014D8009A6942F400729A619A6902F40072009261
:1014E800009A9A6942F004029A619B6903F0040326
:1014F8000193019B0C2302930323039302A903483E
:1015080001F01AFDDFE700BF002401400008014098
:1015180086B0184B9A6942F004029A619A6902F0FF
:1015280004020192019A9A6942F040029A619A690A
:1015380002F040020292029A9A6942F020029A61ED
:101548009A6902F020020392039A9A6942F0100203
:101558009A619A6902F010020492049A9A6942F018
:1015680008029A619B6903F008030593059B06B07E
:10157800704700BF0010024008B50268034B9A424A
:1015880000D008BDFFF71AFFFBE700BF00100040BE
:1015980072B6FEE700B597B0282200210CA80CF01F
:1015A800ABFA00230793089309930A930B930193CB
:1015B8000293039304930593069301220C924FF42C
:1015C80080330D9310920222139214934FF4E01378
:1015D80015930CA801F0E2FDC8B90F230793022167
:1015E8000891002309934FF480620A920B9307A88D
:1015F80002F006F868B9022301934FF400430393FD
:1016080001A802F0D9F830B917B05DF804FBFFF76C
:10161800BFFFFFF7BDFFFFF7BBFF000008B501F0F4
:10162800B5F9FFF7B7FFFFF773FFFFF713FF00F0F8
:10163800D9FF00F07FFD00F0AFFD00F0E1FD00F004
:1016480013FE00F045FE01F05FF801F0F5F8FFF732
:10165800FBFD04211B4802F0B9FD04211A4802F0E1
:10166800B5FD0421194802F0B1FD0421184802F023
:10167800ADFD184C0021204602F02EFD0421204625
:1016880002F02AFD0821204602F026FD0C21204602
:1016980002F022FD104C0021204602F01DFD04211D
:1016A800204602F019FD0821204602F015FD0C2104
:1016B800204602F011FD094802F0D0F9FFF77CFD41
:1016C800FEE700BF1C0B0020D40A00208C0A002073
:1016D800440A0020640B0020B4090020FC09002003
:1016E800F0B40022026042608260C26000240025DB
:1016F800C0E90445C0E90645C0E90845C0E90A450E
:1017080017A7D7E90067C0E90C6717A7D7E90067EB
:10171800C0E90E67C0E910450024194DC0E912451B
:101728000024184DC0E914450024174DC0E916459A
:101738000026164FC0E91867C0E91A45C0E91C45DC
:101748000BA5D5E90045C0E916450BA7D7E9006701
:10175800C0E91867C0E91A45C0E91C45F0BC7047E4
:101768007B14AE47E17A843F9A9999999999B93F40
:10177800CC3B7F669EA0E63FCC3B7F669EA0E6BF43
:10178800000024C0000024400000F03F0000F0BF2B
:101798007047016070474160704781607047C16061
:1017A800704700220023C0E90423C0E90623C0E9EA
:1017B8000823C0E90A23704710B50446006818B129
:1017C800D4E9042300F026FA606818B1D4E90623A6
:1017D80000F020FAA06818B1D4E9082300F01AFA3A
:1017E800E06818B1D4E90A2300F014FA10BD00002B
:1017F8002DE9F047ADF5227D824616461F46D0E911
:101808001023CDE90223D0E90E23CDE90023D0E946
:101818000C23022164A800F06EFADAE91023CDE95E
:101828000223DAE90E23CDE90023DAE90C230221A9
:1018380046A800F060FADAE91023CDE90223DAE9D4
:101848000E23CDE90023DAE90C23022128A800F0B1
:1018580052FADAE91023CDE90223DAE90E23CDE9B9
:101868000023DAE90C2302210AA800F044FA002236
:10187800002330463946FEF7CFFE50B9DAE9142383
:10188800CDE90023DAE9122364A982A800F075FAE9
:1018980003E007F100431F46F0E7DAE91423CDE936
:1018A8000023DAE9122346A986A800F066FADAE9E5
:1018B8001423CDE90023DAE9122328A98AA800F025
:1018C8005CFADAE91423CDE90023DAE912230AA93C
:1018D8008EA800F052FA00220023CDE904230496D2
:1018E80007F100430593CDE90067DDE9042364A906
:1018F80092A800F05EFACDE90067DDE9042346A965
:1019080096A800F056FACDE90067DDE9042328A976
:101918009AA800F04EFACDE90067DDE904230AA988
:101928009EA800F046FADDE9AA23DAE91601FFF7D6
:10193800E5F806460F46DDE9AC23DAE91801FFF7BA
:10194800DDF802460B4630463946FEF74FFC0646A0
:101958000F46DDE9AA23DAE91A01FFF7CFF8CDE946
:101968000401DDE9AC23DAE91C01FFF7C7F80246F8
:101978000B46DDE90401FEF739FCCDE90401DAF88C
:10198800000000F068F9DAF8040000F064F9DAF809
:10199800080000F060F9DAF80C0000F05CF9324653
:1019A8003B4664A800F0DFF9DDE9042346A800F00F
:1019B800DAF9DDE9042328A800F0D5F932463B46D8
:1019C8000AA800F0D0F9DAF8000000F042F9FEF7B2
:1019D80059FD32463B46FEF707FC21F00045002240
:1019E8006B4B2946FEF718FE88B1DAF8040000F0C0
:1019F80030F9FEF747FDDDE90423FEF7F5FB21F09A
:101A080000490022624B4946FEF706FE20B9DAF883
:101A1800000000F01EF932E0DAF8080000F019F9C9
:101A2800FEF730FDDDE90423FEF7DEFB069021F02A
:101A3800004307930022564BDDE90601FEF7ECFD53
:101A48000028E4D0DAF80C0000F003F9FEF71AFDDC
:101A580032463B46FEF7C8FB089021F00043099345
:101A680000224B4BDDE90801FEF7D6FD0028CED059
:101A78005046FFF796FE5046FFF79EFE66E0FEF7DB
:101A880001FD02460B4664A800F068F964A800F05E
:101A980081FADAF8040000F0DCF8FEF7F3FC0246FD
:101AA8000B4646A800F05AF946A800F073FADAF88F
:101AB800080000F0CEF8FEF7E5FC02460B4628A821
:101AC80000F04CF928A800F065FADAF80C0000F0EC
:101AD800C0F8FEF7D7FC02460B460AA800F03EF90C
:101AE8000AA800F057FA5046FFF75BFE64A800F01A
:101AF8003FF902460B46DAE90401FEF777FBCAE92B
:101B0800040146A800F034F902460B46DAE906015A
:101B1800FEF76CFBCAE9060128A800F029F902467D
:101B28000B46DAE90801FEF761FBCAE908010AA8D1
:101B380000F01EF902460B46DAE90A01FEF756FBE9
:101B4800CAE90A015046FFF737FE3CE70AA800F049
:101B5800F2F828A800F0EFF846A800F0ECF864A81E
:101B680000F0E9F80DF5227DBDE8F0870AA800F03D
:101B7800E2F828A800F0DFF846A800F0DCF864A82E
:101B880000F0D9F802F09EFEF3E7F5E7F7E700BFAB
:101B98000000144038B50446002303704360836096
:101BA80000F11005284600F091F80121284600F0C0
:101BB800C3F804E0284600F0BEF802F083FE204691
:101BC80038BD10B50446103000F0B5F8204610BDF9
:101BD80010B500F11004204600F0B1F8DDE9022349
:101BE800204600F0B1F8DDE90423204600F0B1F802
:101BF80010BD2DE9004886B0DDE908BCCDE900BC80
:101C080000F1100102A800F0D4F806B0BDE8008881
:101C18000170704738B5017811B103F100452B46C2
:101C2800103000F0A0F838BD8160704738B5044620
:101C38000D460846FEF726FC02460B4604F1100046
:101C480000F08CF8237803B16D4260682844606026
:101C580038BD40687047034600205860704738B563
:101C6800044600F11005284600F094F9A4681CB158
:101C7800284600F07DF8A04738BD2DE9F843164600
:101C88001F46089BD3E90089D3E9024522462B4623
:101C980040464946FEF7B6FC90B932463B464046B8
:101CA8004946FEF7D7FC08B9B046B94642464B4606
:101CB80020462946FEF7B0FC20B944464D4601E0CF
:101CC80034463D4620462946BDE8F88330B4012213
:101CD800026000240025C0E90245C0E90445C0E9C6
:101CE8000645C0E91645C0E91845C0E91A45C0E9E6
:101CF8001C4530BC704730B4012404600024002522
:101D0800C0E90245C0E90445C0E90645C0E91645F1
:101D1800C0E91845C0E91A45C0E91C450160C0E999
:101D28000223DDE90223C0E90423DDE90423C0E935
:101D3800062330BC70477047016008467047C0E909
:101D48000223104619467047C0E904231046194675
:101D58007047C0E90623104619467047C0E90823B2
:101D6800104619467047C0E90A23104619467047BD
:101D780000F15001D1E90001704730B484B08446C5
:101D8800DDE90645CDE90023CDE90245C1E9162381
:101D9800C1E9184558310FC98CE80F00604604B0F6
:101DA80030BC7047844658310FC98CE80F00604634
:101DB800704730B484B08446DDE90645CDE9002398
:101DC800CDE90245C1E91A23C1E91C4568310FC9AB
:101DD8008CE80F00604604B030BC70478446683118
:101DE8000FC98CE80F00604670472DE9F04786B0B0
:101DF8008246D0E91023C0E91223D0E90C23C0E9B8
:101E0800102300F12801D1E90001DAE90823FEF7DF
:101E1800EBF9CAE90C01DAE90245DAE90C01DAE979
:101E28001023FEF7E1F902460B4620462946FEF745
:101E380065FE04460D46DAE90C23DAE90401FEF7EB
:101E48005DFE02460B4620462946FEF7CFF90446BA
:101E58000D46DAE90667DAE90C89DAE91001024683
:101E68000B46FEF7C3F902460B4640464946FEF7C5
:101E7800BBF9DAE91223FEF7B9F902460B463046F8
:101E88003946FEF73BFE02460B4620462946FEF73A
:101E9800ADF902460B46DAE91401FEF7A7F9CAE9DB
:101EA8001401DAE9146702AC51462046FFF796FFA1
:101EB800009432463B465046FFF7DFFECAE914015C
:101EC80006B0BDE8F0872DE9D0438AB00446D0E9D2
:101ED8000C23C0E9102300F12801D1E90001D4E95D
:101EE8000823FEF781F9C4E90C01D4E90C23D4E9ED
:101EF8000E01FEF77BF9C4E90E01D4E90E8902AEA2
:101F080021463046FFF74EFF009642464B46204694
:101F1800FFF7B3FEC4E90E01D4E90C23D4E90201AA
:101F2800FEF7ECFD06460F46D4E90E23D4E904017A
:101F3800FEF7E4FD02460B4630463946FEF756F9F1
:101F480006460F46D4E90689D4E90C01D4E91023E2
:101F5800FEF74AF902460B4640464946FEF7CEFDD3
:101F680002460B4630463946FEF740F9C4E91401EB
:101F7800D4E9148906AE21463046FFF72FFF0096B4
:101F880042464B462046FFF778FEC4E914010AB0E2
:101F9800BDE8D08310B504460368012B05D0022B99
:101FA80006D02046FFF7E4FE10BDFFF71EFFF8E756
:101FB800FFF789FFF5E7000082B00E4B9A6942F0FF
:101FC80001029A619A6902F001020092009ADA69A4
:101FD80042F08052DA61DB6903F080530193019B80
:101FE800054A536823F0E06343F00073536002B07E
:101FF800704700BF0010024000000140FEE7FEE706
:10200800FEE7FEE7FEE770477047704708B500F047
:10201800CFFC08BD08B5024801F061FD08BD00BF4E
:102028001C0B002008B5024801F059FD08BD00BF8F
:10203800D40A002008B5024801F051FD08BD00BFD0
:102048008C0A002008B5024802F0F4FA08BD00BF67
:10205800AC0B002008B5024801F041FD08BD00BFE7
:10206800440A002008B5024801F039FD08BD00BF48
:10207800FC0900200120704708B50BF077FE1623F5
:1020880003604FF0FF3008BD08B54FF0FF31FFF790
:10209800F3FFFEE770B50C461646002506E0AFF3E1
:1020A8000080214601F8010B01350C46B542F6DBEC
:1020B800304670BD70B50C461646002504E014F88D
:1020C800010BAFF300800135B542F8DB304670BD37
:1020D8004FF0FF3070474FF400534B6000207047BB
:1020E800012070470020704710B503460C4A0D497F
:1020F8000D48006840B10C4800680344521A9342E6
:1021080006D8094A136010BD0748084C0460F2E776
:102118000BF02CFE0C2303604FF0FF30F3E700BFF9
:102128000000012000040000B0090020300F00204A
:102138007047000000B58DB02422002103A80BF0E1
:10214800DBFC00230193029312484FF080420260A7
:102158000322426083604FF6FF71C16003618023F0
:102168008361039201230593099303A901F018FEE3
:1021780050B900230193029301A9064802F08CF894
:1021880028B90DB05DF804FBFFF702FAF1E7FFF795
:10219800FFF9F6E71C0B002000B58DB024220021C2
:1021A80003A80BF0A9FC0023019302931248134AD9
:1021B80002600322426083604FF6FF71C1600361D1
:1021C80080238361039201230593099303A901F0F6
:1021D800E7FD50B900230193029301A9064802F0D4
:1021E8005BF828B90DB05DF804FBFFF7D1F9F1E70A
:1021F800FFF7CEF9F6E700BFD40A0020000400403C
:1022080000B58DB02422002103A80BF075FC002333
:10221800019302931248134A0260032242608360CA
:102228004FF6FF71C160036180238361039201232C
:102238000593099303A901F0B3FD50B90023019355
:10224800029301A9064802F027F828B90DB05DF8F5
:1022580004FBFFF79DF9F1E7FFF79AF9F6E700BFEE
:102268008C0A00200008004000B58DB0242200210F
:1022780003A80BF041FC0023019302931248134A70
:1022880002600322426083604FF6FF71C160036100
:1022980080238361039201230593099303A901F025
:1022A8007FFD50B900230193029301A9064801F06C
:1022B800F3FF28B90DB05DF804FBFFF769F9F1E702
:1022C800FFF766F9F6E700BF440A0020000C00405B
:1022D80000B583B00023009301930F480F4A0260B2
:1022E8004722426083604FF47A73C360802383611E
:1022F80001F0FEFC50B9002300930193694606489B
:1023080001F0CAFF28B903B05DF804FBFFF740F9F4
:10231800F1E7FFF73DF9F6E7FC090020001000405F
:1023280000B585B003681A4A934208D0194A934207
:1023380010D0194A934220D005B05DF804FB174B22
:102348009A6942F400629A619B6903F400630193FD
:10235800019BF1E7114BDA6942F01002DA61DB699F
:1023680003F010030293029B00220121362000F0A3
:10237800D7FC362000F0E4FCDEE7084B9A6942F40B
:1023880000529A619B6903F400530393039BD3E7BC
:10239800002C0140001000400034014000100240B1
:1023A80010B58EB000230A930B930C930D9303681A
:1023B800B3F1804F0BD05C4A934247D05B4A9342BB
:1023C80066D05B4A934200F08D800EB010BD03F5D5
:1023D8000433DA6942F00102DA61DA6902F00102D3
:1023E8000192019A9A6942F004029A619A6902F08C
:1023F80004020292029A9A6942F008029A619B6961
:1024080003F008030393039B4FF400430A930AA9BC
:10241800484800F091FD08230A9300240B940C947B
:102428000AA9454800F088FD444A536823F44073DC
:1024380043F0E06343F480735360224621461C2036
:1024480000F06EFC1C2000F07BFCBEE73C4BDA6918
:1024580042F00202DA61DA6902F002020492049A96
:102468009A6942F004029A619B6903F00403059398
:10247800059BC0230A930AA92E4800F05DFD00229F
:1024880011461D2000F04CFC1D2000F059FC9CE773
:102498002B4BDA6942F00402DA61DA6902F00402CD
:1024A8000692069A9A6942F020029A619B6903F0A3
:1024B80020030793079B4FF440530A930AA9214826
:1024C80000F03AFD1D4A536843F0E06343F480533B
:1024D8005360002211461E2000F022FC1E2000F04E
:1024E8002FFC72E7164BDA6942F00802DA61DA6902
:1024F80002F008020892089A9A6942F004029A6166
:102508009B6903F004030993099B03230A930AA90F
:10251800084800F011FD00221146322000F000FCAE
:10252800322000F00DFC50E7000400400008004095
:10253800000C004000080140000C01400000014070
:10254800001002400014014000B587B00023029338
:1025580003930493059303681C4A934205D01C4ACD
:1025680093421ED007B05DF804FB1A4B9A6942F0FB
:1025780040029A619B6903F040030093009B4FF46B
:10258800D443029302230393059302A9124800F04F
:10259800D3FC124A536843F0E06343F0C00353602E
:1025A800E0E70C4B9A6942F010029A619B6903F0CC
:1025B80010030193019B4FF470730293022303935A
:1025C800059302A9064800F0B7FCCBE7002C0140B0
:1025D8000034014000100240001801400000014092
:1025E8000010014010B596B000241294139414946E
:1025F80015941094119409940A940B940C940D94C6
:102608000E940F942022214601A80BF075FA3C483D
:102618003C4B03604723436084604FF47A73C36084
:10262800046144618023836101F062FB00284BD17F
:102638004FF48053129312A9314801F0BFFC0028CF
:1026480045D12F4801F080FB002843D10023109387
:10265800119310A92A4801F01FFE00283DD16023DC
:10266800099300220A920B920C920D920E920F92ED
:1026780009A9234801F028FC002831D1042209A91E
:102688001F4801F021FC70BB082209A91C4801F071
:102698001BFC58BB0C2209A9194801F015FC40BBCA
:1026A8000023019302930393049305934FF400527C
:1026B8000692089301A9124801F02CFEE0B91048CF
:1026C800FFF742FF16B010BDFEF762FFB0E7FEF756
:1026D8005FFFB6E7FEF75CFFB8E7FEF759FFBEE716
:1026E800FEF756FFCAE7FEF753FFCDE7FEF750FFA8
:1026F800D0E7FEF74DFFD3E7FEF74AFFDFE700BF5D
:10270800640B0020002C014010B596B000241294F0
:102718001394149415941094119409940A940B9496
:102728000C940D940E940F942022214601A80BF0CE
:10273800E3F93F483F4B03604723436084604FF40D
:102748007A73C360046144618023836101F0D0FA25
:10275800002852D14FF48053129312A9344801F043
:102768002DFC00284CD1324801F0EEFA00284AD15D
:1027780000231093119310A92D4801F08DFD002816
:1027880044D16023099300220A920B920C920423ED
:102798000D930E920F9209A9254801F095FB002888
:1027A80037D1042209A9224801F08EFB002833D131
:1027B8001F480268936923F400639361082209A9FA
:1027C80001F082FB58BB0C2209A9194801F07CFBD7
:1027D80040BB0023019302930393049305934FF4A2
:1027E80000520692089301A9114801F093FDE0B93F
:1027F8000F48FFF7A9FE16B010BDFEF7C9FEA9E7FE
:10280800FEF7C6FEAFE7FEF7C3FEB1E7FEF7C0FE70
:10281800B7E7FEF7BDFEC4E7FEF7BAFEC8E7FEF766
:10282800B7FED0E7FEF7B4FED3E7FEF7B1FEDFE769
:10283800B40900200034014008B50A480A4B036077
:102848004FF4E133436000238360C36003610C22CB
:1028580042618361C36101F031FE00B908BDFEF732
:1028680097FEFBE7AC0B00200038014030B587B07D
:102878000023029303930493059302681B4B9A4227
:1028880001D007B030BD03F558439A6942F480423D
:102898009A619A6902F480420092009A9A6942F019
:1028A80004029A619B6903F004030193019B4FF4AE
:1028B8000073029302230393032305930C4D02A98B
:1028C800284600F039FB4FF48063029300240394F8
:1028D800049402A9284600F02FFB22462146252011
:1028E80000F01EFA252000F02BFACAE70038014054
:1028F80000080140FFF71CFC0B480C490C4A002358
:1029080002E0D458C4500433C4188C42F9D3094A9D
:10291800094C002301E013600432A242FBD30BF000
:102928002BFAFEF77BFE704700000020C806002047
:10293800C0480108C80600202C0F0020FEE7000050
:1029480010B504460E4B1A784FF47A73B3FBF2F3C2
:102958000C4A1068B0FBF3F000F000FA68B90F2CCD
:1029680001D901200AE0002221464FF0FF3000F093
:10297800D7F9054B1C60002000E0012010BD00BF06
:1029880008000020040000200C00002008B5074AB9
:10299800136843F010031360032000F0AFF90F2011
:1029A800FFF7CEFFFFF708FB002008BD002002401C
:1029B800034A1168034B1B780B441360704700BF30
:1029C800F40B002008000020014B1868704700BF76
:1029D800F40B002030B482B00022019290F8242039
:1029E800012A00F08F800346012280F824204A68DB
:1029F800062A2DD80468606B02EB8202053A4FF074
:102A08001F0C0CFA02FC20EA0C000D6805FA02F211
:102A1800024362630A68092A38D91C68E06802EB35
:102A280042021E3A4FF0070C0CFA02FC20EA0C0096
:102A38008D6805FA02F20243E2600A68103A012A38
:102A480034D90020002283F8242002B030BC70471B
:102A58000C2A0DD80568286B02EB8202233A1F2442
:102A6800944020EA04000C68944020432863D1E78E
:102A78000568E86A02EB8202413A1F24944020EA82
:102A880004000C6894402043E862C3E71C6820698E
:102A980002EB42024FF0070C0CFA02FC20EA0C0091
:102AA8008D6805FA02F202432261C6E71A681648E1
:102AB800824205D09A6A42F020029A620120C1E758
:102AC800906810F4000F1BD1906840F400009060EB
:102AD8000A68102A01D00020B4E70C4A12680C4991
:102AE800A1FB0212920C02EB82025200019202E058
:102AF800019A013A0192019A002AF9D10020A1E72E
:102B080000209FE70220A0E70024014004000020E5
:102B180083DE1B4338B503689A6812F0010F01D1B0
:102B2800002038BD04469A6822F001029A60FFF737
:102B38004BFF054623689B6813F0010F13D0FFF77E
:102B480043FF431B022BF5D923689B6813F0010F41
:102B5800F0D0A36A43F01003A362E36A43F00103D1
:102B6800E3620120DDE70020DBE70000002800F039
:102B7800888070B50446836A002B52D02046FFF740
:102B8800C9FFA36A13F0100375D1002873D1A26A94
:102B980022F4885222F0020242F00202A262626823
:102BA800266839498E4242D0E1690A43217B42EACC
:102BB8004102A568B5F5807F02D0012D3ED01D46A3
:102BC80094F814C0BCF1010F3BD0716821F469413D
:102BD800294371602568AE682C4931401143A960CA
:102BE800A168B1F5807F01D0012902D12369013B99
:102BF8001B052568E96A21F470010B43EB62236821
:102C08009968234B0B409A422CD0A36A23F01203F5
:102C180043F01003A362E36A43F00103E362012077
:102C28002EE0C36280F82430FEF742FCA6E7E16993
:102C3800B1F5402FB9D14FF40021B6E74FF48075B4
:102C4800BEE731B9A169013945EA413141F400656E
:102C5800BBE7A16A41F02001A162E16A41F00101EC
:102C6800E162B2E70023E362A36A23F0030343F0BF
:102C78000103A36204E0A36A43F01003A3620120E6
:102C880070BD0120704700BF003C0140FDF7E1FF27
:102C9800FE0E1FFF002808DB0901C9B200F16040E1
:102CA80000F5614080F80013704700F00F0009013B
:102CB800C9B2014B1954704714ED00E000B500F09B
:102CC8000700C0F1070CBCF1040F28BF4FF0040C3B
:102CD800031D062B0FD9C31E4FF0FF3E0EFA0CF052
:102CE80021EA000199400EFA03FE22EA0E0241EAA7
:102CF80002005DF804FB0023EEE70000074AD368F2
:102D080023F4E0631B041B0C000200F4E06003439F
:102D180043F0BF6343F40033D360704700ED00E035
:102D280010B50446054BD868C0F30220FFF7C6FF6C
:102D380001462046FFF7AEFF10BD00BF00ED00E0E2
:102D4800002807DB00F01F02400901239340024AD4
:102D580042F82030704700BF00E100E00138B0F1D0
:102D6800807F0BD24FF0E0235861054AF02182F8AA
:102D780023100020986107221A61704701207047CC
:102D880000ED00E0034690F82120D2B2022A06D0D6
:102D980004228263002280F8202001207047016805
:102DA8000A6822F00E020A6001680A6822F001022D
:102DB8000A60026CC06B012101FA02F2426083F8DA
:102DC8002110002083F820007047000008B590F813
:102DD8002130DBB2022B03D004238363012008BD1A
:102DE8000268136823F00E0313600268136823F067
:102DF8000103136003684C4A93424ED9783A9342D0
:102E080024D01432934230D0143293422FD014324B
:102E180093422FD0143293422FD0143293422FD0A2
:102E2800143293422FD002F5627293422ED014329C
:102E380093422DD0143293422CD01432934202D0B4
:102E48004FF4803203E04FF4805200E00122374B08
:102E58005A60012380F82130002380F82030436B2A
:102E6800002B5ED098470020B9E71022EFE74FF417
:102E78008072ECE74FF48052E9E74FF48032E6E7DE
:102E88004FF48012E3E74FF08072E0E70122DEE7BB
:102E98001022DCE74FF48072D9E7254A934224D008
:102EA8001432934225D01432934224D014329342E0
:102EB80024D01432934224D01432934224D01432B2
:102EC800934224D002F56272934223D01432934283
:102ED80022D01432934221D01432934202D04FF4BC
:102EE800803203E04FF4805200E00122114B5A6017
:102EF800AFE71022FAE74FF48072F7E74FF48052F9
:102F0800F4E74FF48032F1E74FF48012EEE74FF028
:102F18008072EBE70122E9E71022E7E74FF48072BD
:102F2800E4E700205BE700BF8000024000040240A5
:102F3800080002400000024070B582B00024A44698
:102F4800ACE0854DAB4210D007D9844DAB420CD0D4
:102F580005F58035AB4208D013E0A5F58015AB42E6
:102F680003D005F57025AB4207D18B68002B5FD0E5
:102F7800012B58D04261082403E0A5F58015AB4227
:102F8800F3D0BEF1FF0F55D806464FEA8C023368DE
:102F98000F25954023EA050304FA02F21343336030
:102FA8004B6813F0805F77D06D4B9A6942F001024D
:102FB8009A619B6903F001030193019B4FEA9C020C
:102FC800951C684B53F825600CF00305AD000F23E2
:102FD800AB4026EA0306644B984232D003F580637F
:102FE800984200F0978003F58063984200F094803F
:102FF80003F58063984200F0918003F5806398425E
:1030080000F08E8003F58063984218D0062319E0FB
:10301800CC68B6E7CC680434B3E7CC680834B0E7CA
:10302800CC680C34ADE702610824AAE70024A8E7BD
:103038000424A6E7061DACF108029200A7E70523C1
:1030480000E00023AB4033430232464D45F82230BE
:103058004B6813F4801F65D0444A936843EA0E0313
:1030680093604B6813F4001F62D0404AD36843EA68
:103078000E03D3604B6813F4003F5FD03B4A53689C
:1030880043EA0E0353604B6813F4803F5CD0374A21
:10309800136843EA0E0313600CF1010C0B6833FA52
:1030A8000CF257D0012202FA0CF203EA020E32EABD
:1030B8000303F1D14B68122B3FF643AF122B3FF6B7
:1030C80060AF01A555F823F0732F000819300008E8
:1030D80023300008353000088B2F00088B2F00089C
:1030E8008B2F00088B2F00088B2F00088B2F0008D0
:1030F8008B2F00088B2F00088B2F00088B2F0008C0
:103108008B2F00088B2F00088B2F00081D3000081C
:1031180029300008012395E7022393E7032391E769
:1031280004238FE7114A936823EA0E03936098E714
:103138000E4AD36823EA0E03D3609BE70B4A536811
:1031480023EA0E0353609EE7084A136823EA0E0336
:103158001360A1E702B070BD00002210000031101A
:103168000010024000000140000801400004014036
:1031780082B0084B1B68084AA2FB03235B0A00FBCA
:1031880003F3019300BF019B5A1E0192002BF9D152
:1031980002B0704704000020D34D6210002800F0F0
:1031A800F18170B582B00446036813F0010F2CD08A
:1031B800994B5B6803F00C03042B1DD0964B5B689E
:1031C80003F00C03082B12D06368B3F5803F41D09D
:1031D800002B55D103F1804303F504331A6822F418
:1031E80080321A601A6822F480221A6037E08A4B0B
:1031F8005B6813F4803FE7D0874B1B6813F4003FEC
:1032080003D06368002B00F0BF81236813F0020F1E
:1032180075D0814B5B6813F00C0F5FD07E4B5B68F9
:1032280003F00C03082B54D02369002B00F08A808C
:103238007A4B01221A60FFF7C7FB0546764B1B68DD
:1032480013F0020F75D1FFF7BFFB401B0228F5D919
:1032580003209EE1704A136843F480331360636867
:1032680043B3FFF7B1FB05466B4B1B6813F4003FF4
:10327800CBD1FFF7A9FB401B6428F5D9032088E1CF
:10328800B3F5A02F09D0644B1A6822F480321A6073
:103298001A6822F480221A60E1E703F18043A3F55B
:1032A8003C331A6842F480221A601A6842F4803269
:1032B8001A60D4E7FFF788FB0546574B1B6813F4E1
:1032C800003FA2D0FFF780FB401B6428F5D90320FC
:1032D8005FE1514B5B6813F4803FA5D14E4B1B68EF
:1032E80013F0020F03D02369012B40F04F814A4AA3
:1032F800136823F0F803616943EAC1031360236884
:1033080013F0080F33D0A369002B5CD0434B012284
:10331800C3F88024FFF758FB05463F4B5B6A13F060
:10332800020F21D1FFF750FB401B0228F5D90320DB
:103338002FE1394A136823F0F803616943EAC103AE
:103348001360DCE7354B00221A60FFF73DFB0546AA
:10335800314B1B6813F0020FD1D0FFF735FB401B30
:103368000228F5D9032014E10120FFF701FF2368A3
:1033780013F0040F00F09680274BDB6913F0805F91
:1033880034D1254BDA6942F08052DA61DB6903F007
:1033980080530193019B0125214B1B6813F4807F07
:1033A80026D0E368012B3DD0002B53D103F1804395
:1033B80003F504331A6A22F001021A621A6A22F02B
:1033C80004021A6233E0154B0022C3F88024FFF789
:1033D800FBFA0546104B5B6A13F0020FC7D0FFF7E4
:1033E800F3FA401B0228F5D90320D2E00025D3E7E1
:1033F8000B4A136843F480731360FFF7E5FA064637
:10340800074B1B6813F4807FCBD1FFF7DDFA801BD5
:103418006428F5D90320BCE00010024000004242B5
:10342800007000405F4A136A43F001031362E368C7
:1034380033B3FFF7C9FA06465A4B1B6A13F0020F5B
:103448002FD1FFF7C1FA801B41F288339842F3D994
:1034580003209EE0052B09D0524B1A6A22F0010284
:103468001A621A6A22F004021A62E0E74D4B1A6ADD
:1034780042F004021A621A6A42F001021A62D6E79E
:10348800FFF7A2FA0646474B1B6A13F0020F08D053
:10349800FFF79AFA801B41F288339842F3D9032048
:1034A80077E0E5B9E369002B72D03E4A526802F032
:1034B8000C02082A56D0022B17D03B4B00221A6662
:1034C800FFF782FA0446374B1B6813F0007F47D09A
:1034D800FFF77AFA001B0228F5D9032059E0314A90
:1034E800D36923F08053D361DCE72F4B00221A669F
:1034F800FFF76AFA05462B4B1B6813F0007F06D0CE
:10350800FFF762FA401B0228F5D9032041E0236A3D
:10351800B3F5803F1AD023494B6823F47413226A09
:10352800606A024313434B601F4B01221A66FFF780
:103538004BFA04461B4B1B6813F0007F0ED1FFF7B4
:1035480043FA001B0228F5D9032022E0154A5368E4
:1035580023F40033A1680B435360DCE7002018E034
:10356800002016E0012B16D00E4B5B6803F4803167
:10357800226A914211D103F47013626A93420ED108
:10358800002006E001207047012002E0012000E051
:10359800002002B070BD0120FBE70120F9E70120FF
:1035A800F7E700BF00100240000042420F4B5B6883
:1035B80003F00C02082A01D00D487047C3F3834278
:1035C8000C49885C13F4803F0BD0084B5B68C3F34D
:1035D8004043094AD35C064A02FB00F0B0FBF3F013
:1035E8007047064B03FB00F0704700BF0010024015
:1035F80000127A00B42E0108B02E010800093D001F
:10360800002800F0A08070B50D460446524B1B6898
:1036180003F007038B420BD24F4A136823F00703CA
:103628000B431360136803F007038B4240F08D804F
:10363800236813F0020F17D013F0040F04D0474A81
:10364800536843F4E0635360236813F0080F04D011
:10365800424A536843F460535360404A536823F026
:10366800F003A1680B435360236813F0010F31D0B6
:103678006368012B20D0022B25D0384A126812F03B
:10368800020F64D035494A6822F0030213434B60A5
:10369800FFF79AF90646314B5B6803F00C03626842
:1036A800B3EB820F16D0FFF78FF9801B41F28833F6
:1036B8009842F0D9032045E0284A126812F4003FE6
:1036C800E0D101203EE0254A126812F0007FD9D1EE
:1036D800012037E0204B1B6803F00703AB420AD9EF
:1036E8001D4A136823F007032B431360136803F084
:1036F8000703AB422DD1236813F0040F06D0174AF5
:10370800536823F4E063E1680B435360236813F0C4
:10371800080F07D0114A536823F46053216943EA1C
:10372800C1035360FFF742FF0C4B5B68C3F30313FD
:103738000B4AD35CD8400B4B18600B4B1868FFF74B
:10374800FFF8002070BD012070470120FAE7012032
:10375800F8E70120F6E700BF002002400010024011
:10376800A02E0108040000200C000020014B18685E
:10377800704700BF0400002008B5FFF7F7FF044BAF
:103788005B68C3F30223034AD35CD84008BD00BF7B
:1037980000100240982E010808B5FFF7E7FF044B18
:1037A8005B68C3F3C223034AD35CD84008BD00BF9B
:1037B80000100240982E010870B582B004460368D4
:1037C80013F0010F36D03F4BDB6913F0805F49D10E
:1037D8003C4BDA6942F08052DA61DB6903F08053CE
:1037E8000193019B0125384B1B6813F4807F3BD064
:1037F800344B1B6A13F4407313D0626802F44072AE
:103808009A420ED02F4A136A23F440702F4901269A
:10381800C1F840640026C1F84064106213F0010F3B
:1038280036D1284A136A23F4407361680B43136244
:10383800002D3ED1236813F0020F06D0214A5368A9
:1038480023F44043A1680B435360236813F0100F1F
:1038580034D01C4A536823F4800361690B435360D6
:1038680000202CE00025BEE7174A136843F4807354
:103878001360FFF7A9F80646134B1B6813F4807F03
:10388800B6D1FFF7A1F8801B6428F5D9032016E00C
:10389800FFF79AF806460B4B1B6A13F0020FC0D1CC
:1038A800FFF792F8801B41F288339842F3D903203E
:1038B80005E0D36923F08053D361BBE7002002B051
:1038C80070BD00BF0010024000700040000042427E
:1038D80030B4036A026A22F0010202624268846913
:1038E80024F0730C0C6844EA0C0423F0020C8B6877
:1038F80043EA0C03114DA84203D005F50065A84220
:1039080005D123F00803CD682B4323F004030B4DA6
:10391800A84203D005F50065A84207D122F44072F9
:103928004D6945EA020C8A6942EA0C0242608461E8
:103938004A684263036230BC704700BF002C0140F4
:1039480030B4036A026A22F4807202624268C4696F
:1039580024F0730C0C6844EA0C0523F400738C689B
:1039680043EA0423114CA04203D004F50064A042AA
:1039780006D123F40063CC6843EA042323F480636C
:103988000A4CA04203D004F50064A04207D122F4F7
:1039980040524C6942EA04128C6942EA04124260BD
:1039A800C5614A68C263036230BC7047002C01409D
:1039B80030B4036A026A22F4805202624468C2691F
:1039C80022F4E6420D6842EA052223F400538D688A
:1039D80043EA0533094DA84203D005F50065A8421E
:1039E80004D124F480444D6944EA85144460C261DA
:1039F8004A680264036230BC704700BF002C014073
:103A080010B4036A046A24F001040462846924F08F
:103A1800F00C4CEA021223F00A030B4382610362A2
:103A280010BC704710B4036A046A24F010040462DE
:103A3800846924F4704C4CEA023223F0A00343EA70
:103A480001138261036210BC7047836823F070031E
:103A58000B4343F0070383607047000090F83D3044
:103A6800DBB2012B2FD1022380F83D300268D368E6
:103A780043F00103D3600368154A934218D002F556
:103A88000062934214D0B3F1804F11D0A2F598325E
:103A980093420DD002F58062934209D002F580620C
:103AA800934205D01A6842F001021A60002070475C
:103AB8009A6802F00702062A07D01A6842F0010243
:103AC8001A6000207047012070470020704700BF2F
:103AD800002C01407047704770477047704710B519
:103AE800044603681A6912F0020F11D0DA6812F05E
:103AF800020F0DD06FF002021A61012303770368E9
:103B08009B6913F0030F70D0FFF7E6FF00232377BC
:103B180023681A6912F0040F12D0DA6812F0040F41
:103B28000ED06FF004021A610223237723689B6981
:103B380013F4407F5FD02046FFF7CEFF00232377A2
:103B480023681A6912F0080F12D0DA6812F0080F09
:103B58000ED06FF008021A61042323772368DB690B
:103B680013F0030F4ED02046FFF7B6FF002323774C
:103B780023681A6912F0100F12D0DA6812F0100FC9
:103B88000ED06FF010021A61082323772368DB69CF
:103B980013F4407F3DD02046FFF79EFF0023237794
:103BA80023681A6912F0010F03D0DA6812F0010FC6
:103BB80036D123681A6912F0800F03D0DA6812F040
:103BC800800F34D123681A6912F0400F03D0DA68E5
:103BD80012F0400F32D123681A6912F0200F03D077
:103BE800DA6812F0200F30D110BDFFF774FF2046BD
:103BF800FFF773FF8AE72046FFF76DFF2046FFF7C0
:103C08006CFF9BE72046FFF766FF2046FFF765FF3E
:103C1800ACE72046FFF75FFF2046FFF75EFFBDE7F2
:103C28006FF001021A612046FDF7A6FCC1E76FF0AC
:103C380080021A61204600F097FBC3E76FF040024C
:103C48001A612046FFF74AFFC5E76FF020021A61A4
:103C5800204600F088FBC7E70368244A904212D048
:103C680002F5006290420ED0B0F1804F0BD0A2F561
:103C78009832904207D002F58062904203D002F554
:103C88008062904203D123F070034A681343174AB5
:103C9800904212D002F5006290420ED0B0F1804FEF
:103CA8000BD0A2F59832904207D002F5806290427C
:103CB80003D002F58062904203D123F44073CA68AE
:103CC800134323F080034A69134303608B68C3627C
:103CD8000B688362054B984203D003F50063984252
:103CE80001D10B690363012343617047002C014034
:103CF80040B310B5044690F83D30F3B1022384F880
:103D08003D30214651F8040BFFF7A6FF012384F844
:103D1800463084F83E3084F83F3084F8403084F8E8
:103D2800413084F8423084F8433084F8443084F8D1
:103D3800453084F83D30002010BD80F83C30FEF757
:103D4800EFFADBE70120704740B310B5044690F85E
:103D58003D30F3B1022384F83D30214651F8040B7D
:103D6800FFF77AFF012384F8463084F83E3084F860
:103D78003F3084F8403084F8413084F8423084F889
:103D8800433084F8443084F8453084F83D300020CE
:103D980010BD80F83C30FFF79DFEDBE7012070473F
:103DA800002856D070B50D46044690F83D30002BDB
:103DB8004AD0022384F83D302268936823F4804374
:103DC80023F007039360214651F8040BFFF744FFE3
:103DD80021688B688A690E6A2868184322F4407241
:103DE80022F00302AB68D5F818C043EA0C2313434A
:103DF80023F47C4323F0FC03EA68D5F81CC042EAAC
:103E08000C221A432B6A1B03D5F810C043EA0C1383
:103E1800134326F022066A686D6942EA05123243A6
:103E2800886021688B6123681A62012384F8463010
:103E380084F83E3084F83F3084F8423084F84330C8
:103E480084F83D30002070BD80F83C30FEF7A8FAB9
:103E5800AFE701207047000030B4036A026A22F01D
:103E6800100202624468826922F4E6420D6842EA5E
:103E7800052223F020038D6843EA0513114DA8425B
:103E880003D005F50065A84206D123F08003CD686C
:103E980043EA051323F040030A4DA84203D005F571
:103EA8000065A84207D124F440644D6944EA8504BA
:103EB8008D6944EA8504446082614A6882630362CA
:103EC80030BC7047002C014038B590F83C30012BCD
:103ED80066D004460D46012380F83C300C2A5AD897
:103EE800DFE802F0075959591B595959305959599E
:103EF80044000068FFF7ECFC2268936943F008036C
:103F080093612268936923F004039361226893699B
:103F180029690B43936100203EE00068FFF79CFF8E
:103F28002268936943F4006393612268936923F4D8
:103F38008063936122689369296943EA0123936145
:103F4800002029E00068FFF7FBFC2268D36943F0F2
:103F58000803D3612268D36923F00403D36122687C
:103F6800D36929690B43D361002015E00068FFF786
:103F78001FFD2268D36943F40063D3612268D369C3
:103F880023F48063D3612268D369296943EA012352
:103F9800D361002000E00120002384F83C3038BDC4
:103FA8000220FCE710B4846824F47F4C42EA032220
:103FB8000A4342EA0C02826010BC704790F83C3019
:103FC800012B78D010B50446012380F83C30022339
:103FD80080F83D300268936823F47F4323F0770329
:103FE80093600B68602B4CD029D8402B54D00CD947
:103FF800502B22D1CA6849680068FFF701FD50219B
:104008002068FFF722FD002005E0202B0DD009D9FC
:10401800302B0AD00120012384F83D30002384F896
:104028003C3010BD0BB1102B05D119462068FFF7A5
:104038000CFD0020EFE70120EDE70120EBE7B3F5E9
:10404800805F34D0B3F5005F0CD1CB684A688968CB
:104058000068FFF7A7FF2268936843F480439360E2
:104068000020D8E7702B24D1CB684A68896800689B
:10407800FFF798FF2268936843F077039360002066
:10408800C9E7CA6849680068FFF7CCFC6021206866
:10409800FFF7DBFC0020BEE7CA6849680068FFF745
:1040A800AFFC40212068FFF7D0FC0020B3E70020D8
:1040B800B1E70120AFE70220704701F01F014FF080
:1040C800010C0CFA01FC036A23EA0C030362036A7D
:1040D8008A4013430362704710B504460846002916
:1040E8003AD194F83E30DBB2013B18BF0123002BD4
:1040F80066D1002849D1022384F83E3001220146C6
:104108002068FFF7DAFF23682F4A934203D002F5AD
:104118000062934203D15A6C42F400425A64236805
:10412800294A934241D002F5006293423DD0B3F14F
:10413800804F3AD0A2F59832934236D002F5806289
:10414800934232D002F5806293422ED01A6842F030
:1041580001021A60002032E0042908D008290DD095
:1041680094F84130DBB2013B18BF0123BFE794F854
:104178003F30DBB2013B18BF0123B8E794F8403069
:10418800DBB2013B18BF0123B1E7042805D008289A
:1041980007D0022384F84130B0E7022384F83F3087
:1041A800ACE7022384F84030A8E79A6802F00702D7
:1041B800062A07D01A6842F001021A60002010BDD2
:1041C8000120FCE70020FAE7002C014038B504463E
:1041D80090F83E00C0B294F83F3094F84220D2B232
:1041E80094F843C00D46B1B9012849D1012A48D1F4
:1041F800022384F83E3084F842307DB3042D39D050
:10420800012200212068FFF758FF012204212068BD
:10421800FFF753FF27E0DBB25FFA8CFC042912D0CA
:10422800012833D1012B2CD1012A31D1BCF1010F46
:1042380030D1022384F83E3084F83F3084F842308D
:1042480084F84330D9E7012B1CD1BCF1010F1BD1F5
:10425800022384F83F3084F84330CEE7012200215E
:104268002068FFF72AFF2268136843F001031360F0
:10427800002006E0012204212068FFF71EFFF2E774
:10428800012038BD0120FCE71846FAE70120F8E7CD
:104298001846F6E71046F4E790F83C20012A34D097
:1042A80010B40346012280F83C20022280F83D2009
:1042B80002685068946820F0700C086840EA0C00A6
:1042C80050601A681248824212D000F5006082429B
:1042D8000ED0B2F1804F0BD0A0F59830824207D0B3
:1042E80000F58060824203D000F58060824204D1EC
:1042F80024F08004496821439160012283F83D201D
:10430800002083F83C0010BC70470220704700BFB3
:10431800002C0140024690F83C30012B21D00123AB
:1043280080F83C30CB6823F440738868034323F457
:1043380080634868034323F400630868034323F455
:1043480080530869034323F400534869034323F463
:104358008043C9690B4311684B64002082F83C0014
:1043680070470220704770477047026802F10C03DB
:1043780053E8003F23F490730C3242E800310029DF
:10438800F3D1026802F1140353E8003F23F001035C
:10439800143242E800310029F3D1036B012B05D018
:1043A800202380F84230002303637047026802F13B
:1043B8000C0353E8003F23F010030C3242E80031AD
:1043C8000029F3D1ECE790F84130DBB2212B01D082
:1043D800022070478368B3F5805F17D0036A5A1CC0
:1043E80002621A7803685A60C38C9BB2013B9BB285
:1043F800C3844BB90268D36823F08003D360026892
:10440800D36843F04003D360002070470369002B52
:10441800E4D1036A1B880268C3F308035360036A84
:1044280002330362E0E7000010B50446026813692E
:1044380023F44053C1680B43136183680269134333
:1044480042691A430168CB6823F4B05323F00C0384
:104458001343CB600268536923F4407381690B43AB
:1044680053610268134B9A4220D0FFF785F9024640
:1044780002EB820202EB820263689B00B2FBF3F25A
:104488000D48A0FB02314909642303FB11231B01DA
:104498003233A0FB03035B0903F0F00202EB0112C5
:1044A80003F00F03216813448B6010BDFFF774F904
:1044B8000246DDE7003801401F85EB5160B310B5B7
:1044C800044690F8413013B3242384F8413022681D
:1044D800D36823F40053D3602046FFF7A5FF226872
:1044E800136923F4904313612268536923F02A0364
:1044F80053612268D36843F40053D360002060649A
:10450800202384F8413084F84230606310BD80F87D
:104518004030FEF7ABF9D7E701207047704708B580
:104528000168CA6822F04002CA60202280F841204F
:10453800FFF7F4FF002008BD7047704708B5406AD0
:104548000023C385C384FFF7F8FF08BD704790F8C0
:104558004230DBB2222B69D18368B3F5805F4FD03C
:10456800826AB3F5805F04D0002B56D10369002B13
:1045780053D103685B681370836A01338362C38D08
:104588009BB2013B9BB2C385002B51D100B583B0D0
:104598000268D36823F02003D3600268D36823F449
:1045A8008073D3600268536923F0010353612023A9
:1045B80080F8423000234363036B012B33D100237F
:1045C8000363026802F10C0353E8003F23F0100371
:1045D8000C3242E800310029F3D103681A6812F05E
:1045E800100F06D0002201921A6801925B680193AD
:1045F800019B818DFFF7AAFF002003B05DF804FB43
:104608000269002AACD1826A03685B68C3F30803B5
:104618001380836A02338362B1E703685B6803F03F
:104628007F031370A8E7FFF787FFE5E702207047CD
:104638000020704710B582B0044602681368D0683D
:10464800516913F00F0F09D113F0200F0CD010F09F
:10465800200F09D02046FFF77AFF16E011F001017C
:1046680015D110F4907F12D1216B012979D013F064
:10467800800F03D010F0800F40F0138113F0400F2B
:1046880003D010F0400F40F0108102B010BD13F0BD
:10469800010F06D010F4807F03D0626C42F0010253
:1046A800626413F0040F04D019B1626C42F0020284
:1046B800626413F0020F04D019B1626C42F0040274
:1046C800626413F0080F07D010F0200F00D119B161
:1046D800626C42F008026264626C002AD5D013F062
:1046E800200F02D010F0200F29D123685B6903F056
:1046F8004003626C12F0080F00D163B32046FFF745
:1047080034FE23685B6913F0400F20D0226802F161
:10471800140353E8003F23F04003143242E8003109
:104728000029F3D1E36B73B1624A5A63E06BFEF779
:104738004DFB0028A9D0E06B436B9847A5E72046BE
:10474800FFF705FFD1E72046FFF7F7FE9DE7204674
:10475800FFF7F3FE99E72046FFF7EFFE00236364B7
:1047680093E713F0100F82D010F0100F3FF47FAFD3
:10477800002301931368019353680193019B5369C4
:1047880013F0400F51D0E26B13685B689BB2002BAB
:104798003FF47BAFA18D99427FF677AFE3859369AC
:1047A800202B37D0226802F10C0353E8003F23F492
:1047B80080730C3242E800310029F3D1226802F1FB
:1047C800140353E8003F23F00103143242E8003198
:1047D8000029F3D1226802F1140353E8003F23F0C3
:1047E8004003143242E800310029F3D1202384F831
:1047F800423000232363226802F10C0353E8003F90
:1048080023F010030C3242E800310029F3D1E06BA9
:10481800FEF7B8FA02236363A18DE38D9BB2C91A30
:1048280089B22046FFF792FE2FE7A18DE38D9BB258
:10483800C91A89B2E38D9BB2002B3FF426AF002939
:104848003FF423AF226802F10C0353E8003F23F43E
:1048580090730C3242E800300028F3D1226802F14C
:10486800140353E8003F23F00103143242E80030F8
:104878000028F3D1202384F84230002323632268E0
:1048880002F10C0353E8003F23F010030C3242E816
:1048980000300028F3D1022363632046FFF756FE59
:1048A800F3E62046FFF78FFDEFE62046FFF737FED9
:1048B800EBE600BF454500080B460146184608F0E0
:1048C800C7BB00BF1EB400F089F81EBCFBF77AFF17
:1048D800F0B51D4603780C46472B83B019D000204D
:1048E800234E336801909B683046984778B1022779
:1048F800019B1B6801932368204631461C6901AA65
:104908000123A04720BB0746384603B0F0BD012766
:10491800F1E743784E2BE2D18378552BDFD1C3786A
:10492800432BDCD10379462B17D0432BD7D14379BE
:104938002B2BD4D183792B2BD1D1C379012BCED872
:1049480050F8206C12BF5830304656F8786CC8E7DB
:104958003846019B2B6003B0F0BD43794F2BBED185
:104968008379522BBBD1C0790028B8D1014EB8E762
:104978005C2F0108302F010810B5044600F07AF8C2
:10498800224612F82039472B04D0836823BB826063
:10499800012010BD63784E2BF7D1A378552BF4D1A5
:1049A800E378432BF1D12379432BEED163792B2B79
:1049B800EBD1A3792B2BE8D1E379012BE5D854F877
:1049C800043C0133012B44F8043CE1D1836844F8EA
:1049D800083C8260012010BD00F05AFB08B500F0C9
:1049E80049F8836883B393F82020472A04D000222B
:1049F800826003F1200008BD93F821204E2AF6D1E9
:104A080093F82220552AF2D193F82320432AEED195
:104A180093F82420432AEAD193F825202B2AE6D1BB
:104A280093F826202B2AE2D193F82720012ADED8F2
:104A3800DA69013ADA61002ADBD1002299698160DA
:104A48009A6103F1200008BD00F022FB704700BF07
:104A580000487047C42E010810B50446042106F02A
:104A6800FFFC204610BD00BF704700BF00487047DC
:104A7800F80B002000487047F80B0020024A034951
:104A88000348FFF719BF00BF00000020714A000863
:104A9800F80B0020502870B51DD0844600F00F0098
:104AA8000C2855D8DFE800F0074426071E54545454
:104AB800542A22071E00104650F8046B4EB10CF021
:104AC8007004102C08BF11461CF0800F0E4418BF4C
:104AD80036681E6070BDD01C20F0030050F8046BCF
:104AE8001E6070BD104650F8086BE7E7104630F9B5
:104AF800026BE3E7104630F8026BDFE7002610464A
:104B0800344610F8015B05F07F0E0EFA04FE15F02E
:104B1800800F46EA0E0604F10704F2D11F2CCDD807
:104B28006D06CBD54FF0FF3505FA04F42643C6E7EA
:104B380000261046344610F8015B05F07F0E0EFA89
:104B480004FE2D0646EA0E0604F10704F3D4B5E781
:104B580007F0F2FDFF2808B5034612D003F07003F2
:104B6800302B084613D005D8202B09D1BDE80840C2
:104B780007F0DFBD402B06D1BDE8084007F0C6BDF1
:104B880003D8002008BD502BFBD007F0D5FDBDE8A9
:104B9800084007F0CBBD00BFF8B506460C461546E1
:104BA80008B107F0B3FD286014F8017BFF2F28D166
:104BB8006860204610F8012BFF2A32D00024102309
:104BC80022462B7510F8011B01F07F03934009065C
:104BD80044EA030402F10702F4D40319002422462C
:104BE800EB6010F8013B6B7510F8011B01F07F03B7
:104BF80093401C430B0602F10702F5D404442C61D0
:104C0800F8BD31463846FFF7A5FF224601462B1D61
:104C18003846FFF73FFF0446204610F8012BFF2ACD
:104C2800CCD100232A75D9E700232DE9F04F164689
:104C380000F0030295B0012A0F460A9313D0022A06
:104C480008D13146384607F049FD40B9082015B06B
:104C5800BDE8F08F002A00F0988007F06DFD09206C
:104C680015B0BDE8F08F10F0080400F09F800EAA80
:104C78000292009244F0020203920E910C2219460D
:104C8800304607F04FF8304607F046FD04900028FC
:104C9800D7D0029A04993046FFF77EFF9DF84C3032
:104CA8008146314618460693FFF754FF0146002314
:104CB8000C460DF1340805910F2219463046CDF8FF
:104CC8000080109407F006F80D9BDDF848B023F03B
:104CD8000103D94503F1FF3535D29DF84DA00E9C4F
:104CE80000215046FFF736FF4A4601460BAB5046B7
:104CF800FFF7D0FE002181465046FFF72BFF4A46BA
:104D080001460CAB5046FFF7C5FE002181465046D0
:104D1800FFF720FF4A46014643465046FFF7BAFED2
:104D28004FF0000C8146624619F8011B01F07F0321
:104D380093404CEA030C0B0602F10702F4D40B9BD8
:104D48002344AB421AD94FF0000A0123D146039AF3
:104D5800D10740F183800023304619460D22CDF853
:104D680000800A9C06F0B6FF049B0620C7E90B39B1
:104D78000D9B7C62C7F828A03B6268E70C9A134435
:104D8800AB4275D8CB45ABD8DDE702073FF559AF45
:104D9800012303930EAB02930023029A304600923C
:104DA80019460C220E9706F0BDFF6CE70EAB1A46AB
:104DB80000920D6A02930D2223462146304606F0E2
:104DC80089FF0E9B9D4202D002230393E4E7029AD7
:104DD80023462146009230460C220E9706F0A2FF89
:104DE800D7E90A43D7F83090B9F1000F3DD0A24671
:104DF80004930DF13408BAF1000FC0F205810325C0
:104E0800002330461A461946CDF800800D9706F063
:104E180089FF0023012219463046CDF800800D9401
:104E280006F080FF00230F2219463046CDF8008097
:104E380006F050FF00230D9A304602F0010242EAC4
:104E480009020D9219460F22CDF8008006F06AFF7C
:104E5800022D64D0072015B0BDE8F08F039A120721
:104E680061D4012B18BF5446C5D1384606F018FB4B
:104E78000D9B6046002B3FF4E4AE0F9A03EB02094A
:104E8800002800F0E4800CF1FF300BEB0004B9F1CE
:104E9800000F3FF4D6AE039B13F00803089300F00D
:104EA800DB80754B3B60754B7B600023DDF818B0E9
:104EB800CDF8189099460BF0070209920796002141
:104EC8000A4614F8010B00F07F039340050641EAF7
:104ED800030102F10702F4D41F2A05D8400603D5BE
:104EE800012393405B42194300258A4626462A46F9
:104EF80016F8010B00F07F0393401D43030602F1EF
:104F08000702F5D41F2A18D8460616D50123934060
:104F18005B421D4319BB4FF001092C44CFE73846CB
:104F2800FFF72AFD96E7012B00F0A380BAF1000FE6
:104F3800C0F29B805446032562E781B94FF001090E
:104F4800002DEAD14B46DDE90696002B3FF479AEF9
:104F5800039BD8073FF575AE0024022550E70029CA
:104F680021DC6FF04043119E5B1A56F8231006EBC4
:104F780083060FB1089B2BB10029E1D10323DDE99A
:104F88000696E4E60A9B0D9321B9F7E756F8041F45
:104F98000029F3D04346002238463144FFF798FCF5
:104FA8000028F3D0CCE7BBF1FF0F4ED0099A042AB2
:104FB8003FF653AE01A353F822F000BFD94F0008C3
:104FC800634C00080B500008D94F00080550000832
:104FD8008B005B42119A05991A4458464346FFF7DD
:104FE80059FD0D990029C9D0002FA9D000223846B3
:104FF8000AABFFF76DFC0028A2D0BFE7CB005B42ED
:10500800E8E74B005B42E5E7029A04993046FFF770
:10501800C3FD31469DF84C00FFF79CFD6FF0404101
:10502800119A091B52F82130054602EB810033B171
:105038000246002352F8041F01330029FAD1C7E9B8
:105048000A35042378633B63D9E60023C2E7B9F144
:10505800000F7FF47DAFF4E5FB79012B0CBF57F807
:10506800203C07F158030A931FE700F01FF806F0E9
:105078008FFA00F00DF800BF474E5543464F5200D7
:1050880008B5804707F058FB06F082FA07F054FB92
:1050980008B5034B1868BFF35B8FFFF7F1FF00BF3C
:1050A8001400002008B58047FFF7F2FF08B5034B4E
:1050B8001868BFF35B8FFFF7F5FF00BF10000020F3
:1050C800024B1868BFF35B8F704700BF14000020C5
:1050D800024B1868BFF35B8F704700BF10000020B9
:1050E80010B50446024B036000F048F9204610BD95
:1050F800B42F010810B50446044B036000F03EF9D4
:1051080020460C2106F0ACF9204610BDB42F01084A
:1051180070B582B0069E044696420D4609D0A06836
:10512800294604680696246AA44602B0BDE8704081
:10513800604719460192009300F064F8DDE90032F7
:105148000028ECD0062002B070BD00BF2DE9F04F5A
:105158000D4681B01946DDE90A8BDDE90CA91C462C
:105168000746164600F04EF880B9D04527D0B868F3
:1051780023460468CDE90CA9CDE90A8BE4693246D7
:105188002946A44601B0BDE8F04F6047002DC9F894
:10519800008089F804600CDBA844C24514BF4FF0B6
:1051A80001084FF0060889F80680002001B0BDE824
:1051B800F08F0235F9D1012389F80630F5E7594611
:1051C800384600F01FF80028D1D089F80560ECE7D0
:1051D8002DE9F04106460F4614461D4600F008F931
:1051E80048B9B0682B4605682246AC693946A446DA
:1051F800BDE8F0416047BDE8F08100BF704700BFDF
:1052080000207047814211D008B5406803782A2BE6
:105218000AD049680B782A2B08BF0131FBF71AFB23
:10522800B0FA80F0400908BD002008BD0120704791
:1052380070B53B4B82B01A78002A41D101241C700A
:1052480006F0C2FA002831D000224FF0FF36446839
:105258001146237801962A2B08BF013401AB20465A
:1052680006F0A0F82F4D06462B683022DB68012196
:105278002D4808F025FA019B93B12B682046D96880
:1052880008F02CF82B680222DB680121274808F077
:1052980017FA019B13B9304607F05EFA06F05CFA7C
:1052A8002B683046D96808F019F8EBE71D4B2D221A
:1052B8001B682146DB681E4808F002FA07F03CFA32
:1052C800184B1D221B680121DB681A4808F0F8F901
:1052D80007F032FA01290C4619D106F059F903688A
:1052E8009B6898472B6806460B222146DB681248C4
:1052F80008F0E6F92B683046D96807F0EFFF2B680D
:105308000A20D96807F07EFF06F082F9D6E706F092
:105318003FF906F07DF9D1E706F07AF9FFF7D2FAFE
:10532800040C002034040020103001084430010827
:1053380048300108F02F010878300108102370B5B3
:10534800002484B00293036815469E6912686B4670
:10535800009401940394B0479DF8043003F00603C9
:10536800062B09BF01202046009B2B6004B070BDAE
:10537800009890420CBF06200120704710B50446E3
:10538800024B0360FFF73AFF204610BDBC3001080E
:1053980010B50446044B0360FFF730FF2046082190
:1053A80006F05EF8204610BDBC3001082DE9F0413A
:1053B800069FDDE908158F42044690461E460CD02C
:1053C80031462046FFF71EFF20B101232F6085F8E4
:1053D8000480AB710020BDE8F0810799FFF712FF48
:1053E8000028EDD0002085F80580BDE8F08100BFD9
:1053F80038B515461C46FFF705FF00B938BD082229
:1054080006232560E260237138BD00BF2DE9F04115
:10541800064617461D460C46FFF7F4FE48B9032D0D
:1054280007D823683A4631462046BDE8F0415B6913
:105438001847BDE8F08100BF312970B5864643D8CA
:10544800282928D80A291ED90120A1F10B04E4B281
:10545800A040304C0440002C4DD0D2B1DEE90540CC
:10546800844216DA0026DEF8105004EB840C05EBB3
:105478008C00013446608660CEF8144005F82C1084
:10548800C0E9032370BD042930D9A1F1090001281E
:10549800E3D9002070BDA1F129000828F9D801A49A
:1054A80054F820F065540008F9540008F554000831
:1054B8009B540008F554000865540008655400081A
:1054C80063540008F9540008A1F13400C0B21D2843
:1054D800DFD84FF0010C0CFA00FC0F480CEA000072
:1054E8000028BAD10D480CEA000070B1002AD0D0CB
:1054F800002BB3D1CDE710F47F1FAFD1084C044087
:10550800002CC6D0002AF3D1C3E71CF0505CC0D0F1
:10551800A4E700BFFE1F802F0711C701F82E000A5D
:105528000100400070B5C268864611786E2924D003
:105538003039CBB2092B2AD8002600206FF000455D
:10554800144C06E01946EB1AA4FB03C3B0EBD30FC7
:1055580010DC0132CEF80C20137800EB8000303BD1
:105568005FFA83FCBCF1090F01EB4000EAD906B1F0
:10557800404270BD4FF0FF3070BD531CC36051787E
:105588003039CAB2092A02D81A460126D5E70020BE
:1055980070BD00BFCDCCCCCC10B5044629B9C368CA
:1055A8001A786AB15A1CC2601978682917D0762906
:1055B80006D12046FFF7B6FFE3681A785F2A01D0C4
:1055C800002010BD01332046E360FFF7ABFFE3681E
:1055D8001A785F2AF4D101200344E36010BD204605
:1055E800FFF7A0FFF3E700BFC3681A785F2A01D06E
:1055F8000120704710B55A1CC2605A7804465F2AC9
:1056080004D0FFF78FFFC043C00F10BD0233C36043
:10561800FFF788FF002807DB092801DC012010BDFF
:10562800E3681A785F2A01D0002010BD0133E360D7
:10563800F4E700BF002966D038B505460C46A368D4
:10564800012B03F1010337DCD5F81C01B0F5806F9D
:1056580032DC2278A360531E502B2DD8DFE803F0EC
:105668003131314C2C2C2D2D313131313131313119
:10567800313131313131312C313131313131313117
:105688003131424231312C313131312931313131ED
:10569800312C2D31313131313131313131313131FB
:1056A800312C2C31292929292C3131313131313111
:1056B8003100E468002CC2D138BD2469002CBED169
:1056C800FAE7E168431CC5F81C312846FFF7B2FF2A
:1056D80028462169FFF7AEFFD5F81C31013BC5F814
:1056E8001C3138BDE1680B78052BEBD1D5F8383182
:1056F8000133C5F83831E5E7D5F84431E1680133BD
:10570800C5F84431DEE77047034600202BB909E0AD
:10571800DA682AB11B6901301BB11A782F2AF7D031
:10572800704770471846704720B909E039B10069D9
:10573800013930B103782F2BF8D000207047C068AA
:10574800704770472DE9F041144652684B1C1344CA
:10575800D4E90258AB420E46074682B014D8B8F1D5
:10576800000F0ED163682068324618443946FBF7AB
:105778004FF9D4E90032334403F8028063683344B4
:10578800636002B0BDE8F081B8F1000FF9D17DB1D6
:105798006D00AB42FCD82946206807F0A9FA60B131
:1057A800D4F80C802060A560B8F1000FDAD0E8E7E3
:1057B800022B4FF00205EBD8EDE70190206806F0C8
:1057C800CBFF0122019BE26023606360A360D8E7FE
:1057D8000378722B07D0562B05D04B2B03D0442BC4
:1057E80003D000207047012070474078A0F177036C
:1057F800012BF8D900F0DF00A0F14F00B0FA80F0DB
:105808004009704770B50D46D0F800110446FF29CD
:1058180006D04B1CC4F80031655484F8045170BD9F
:105828000026D0E9423280F8FF60984701233146CC
:10583800D4F82821C4F800311A44C4F82821655442
:1058480084F8045170BD00BFD0F810318BB15A688C
:10585800CB681069002B0BDB20B906E03BB100696F
:10586800013B10B102782F2AF8D000207047C06899
:1058780070470123C0F81831F7E700BF00293FD06F
:105888002DE9F04105460C464FF001081D4F1E4E0C
:105898002378082B08D8082B12D8DFE803F0191151
:1058A80011111126191616002C2B14D9323BDBB214
:1058B8001B2B05D808FA03F23A4209D1012B04D070
:1058C8002846E168FFF7DAFF18B92469002CDFD110
:1058D8000020BDE8F081172BF2D9183BDBB226FA7D
:1058E80003F3DB07ECD50020F3E721462846FFF752
:1058F800ABFF0028ECD003782F2BEAD00020E8E794
:10590800002070470100E30C018010002DE9F041F0
:10591800044608460D4608F0B9FA40B3013D4FF079
:105928000008D4F800112F1809E00B46BD4201F118
:105938000101C4F80011E65484F8046117D0FF2966
:1059480015F8016FF1D1D4E94232204684F8FF807E
:10595800984701210023D4F82821BD420A44C4F8FD
:105968002821C4F80011E65484F80461E7D1BDE8A1
:10597800F08100BF38B5C2681378542B27D1531C67
:10598800C360527804465F2A23D06E2A1FD0FFF7DF
:10599800C9FD411C1BD4E3681A785F2A17D1D4E9E2
:1059A800052001338242E36011DA4FF0000E05252D
:1059B800236902EB820C03EB8C000132C0F804E08F
:1059C800C0F808E0626103F82C50C16038BD0020BF
:1059D80038BD0021E3E700BF2DE9F04188B00A4651
:1059E80004461A4901A807F0B9FE01A808F04EFAC2
:1059F80040B301AD4FF00008D4F800112F1809E0AA
:105A08000B46AF4201F10101C4F80011E65484F8D5
:105A1800046117D0FF2915F8016BF1D1D4E942329E
:105A2800204684F8FF80984701210023D4F82821D4
:105A3800AF420A44C4F82821C4F80011E65484F897
:105A48000461E7D108B0BDE8F08100BFE03001088B
:105A58002DE9F0410446FFF765FD051E44DDE668C3
:105A680063689B1B9D423BDCA26873195207E36085
:105A780004D5725D242A04BF0133E360092DD4E9FB
:105A880005781FDD08223046274907F087FF30B91F
:105A9800337A2E2B2BD05F2B29D0242B27D0B84537
:105AA8001EDD0023206907EB870100EB8100013729
:105AB8004360836067610023C0E9036543608360D6
:105AC80003700EE0B8450BDD0023206907EB870162
