:020000040800F2
:10000000000001200D0600087103000873030008BA
:10001000750300087703000879030008000000005A
:100020000000000000000000000000007B0300084A
:100030007D030008000000007F0300088103000822
:100040005506000855060008550600085506000824
:100050005506000855060008550600085506000814
:100060005506000855060008550600085506000804
:1000700055060008550600085506000855060008F4
:1000800055060008550600085506000855060008E4
:1000900055060008550600085506000855060008D4
:1000A00055060008550600085506000855060008C4
:1000B00055060008550600085506000855060008B4
:1000C00055060008550600085506000855060008A4
:1000D0005506000889030008990300085506000822
:1000E0005506000855060008550600085506000884
:1000F0005506000855060008550600085506000874
:100100005506000855060008550600085506000863
:100110005506000855060008550600085506000853
:100120005506000855060008550600085506000843
:1001300000000000000000000000000000000000BF
:1001400000000000000000000000000000000000AF
:10015000000000000000000000000000000000009F
:10016000000000000000000000000000000000008F
:10017000000000000000000000000000000000007F
:10018000000000000000000000000000000000006F
:10019000000000000000000000000000000000005F
:1001A000000000000000000000000000000000004F
:1001B000000000000000000000000000000000003F
:1001C000000000000000000000000000000000002F
:1001D000000000000000000000000000000000001F
:0401E0005FF8E0F1F3
:1001E4000348044B834202D0034B03B118477047C2
:1001F4001400002014000020000000000548064BF5
:100204001B1AD90F01EBA301491002D0034B03B110
:10021400184770471400002014000020000000005C
:1002240010B5064C237843B9FFF7DAFF044B13B13A
:100234000448AFF300800123237010BD1400002094
:1002440000000000B81A000808B5054B1BB10549A9
:100254000548AFF30080BDE80840FFF7CFBF00BFFB
:100264000000000018000020B81A000882B0064BF5
:100274009A6942F004029A619B6903F004030193B2
:10028400019B02B0704700BF0010024072B6FEE747
:1002940000B591B02822002106A801F02BFB002311
:1002A40001930293039304930593012206924FF45E
:1002B400803307930A9202220D920E934FF4E013B7
:1002C4000F9306A800F094FC80B90F230193022138
:1002D4000291002303934FF480620492059301A8D2
:1002E40000F0B8FE20B911B05DF804FBFFF7CEFFB3
:1002F400FFF7CCFF08B500F0D3F9FFF7C9FFFFF70C
:10030400B5FF00F051F800F069F8044B1B780122A6
:1003140003491944034801F0DAFAFEE7C00000205B
:10032400C40000207800002082B00E4B9A6942F08D
:1003340001029A619A6902F001020092009ADA6954
:1003440042F08052DA61DB6903F080530193019B30
:10035400054A536823F0E06343F00073536002B02E
:10036400704700BF0010024000000140FEE7FEE7B6
:10037400FEE7FEE7FEE770477047704708B500F0F8
:10038400A1F908BD08B5024801F044F908BD00BF51
:100394007800002008B5024801F03CF908BD00BF10
:1003A400300000207047000008B50A480A4B03607B
:1003B4004FF4E133436000238360C36003610C2284
:1003C40042618361C36101F00BF800B908BDFFF716
:1003D4005DFFFBE7780000200038014008B50A48BB
:1003E4000A4B03604FF4E133436000238360C3602E
:1003F40003610C2242618361C36100F0F1FF00B923
:1004040008BDFFF743FFFBE7300000200044004035
:1004140070B588B00023049305930693079303688B
:10042400344A934204D0344A934233D008B070BD66
:10043400324B9A6942F480429A619A6902F480428A
:100444000092009A9A6942F004029A619B6903F04F
:1004540004030193019B4FF4007304930225059553
:1004640003230793264E04A9304600F08FFA4FF475
:100474008063049300240594069404A9304600F094
:1004840085FA22462946252000F074F9252000F03B
:1004940081F9CBE7194BDA6942F40032DA61DA699F
:1004A40002F400320292029A9A6942F004029A61BA
:1004B4009B6903F004030393039B04230493022323
:1004C4000593032307930E4D04A9284600F05EFA12
:1004D4000823049300240594069404A9284600F0F4
:1004E40055FA22460121262000F044F9262000F086
:1004F40051F99BE7003801400044004000100240DD
:10050400000801400268314B9A4200D0704710B590
:100514002F4B1B782F4AD25C2F49C95C8A4217D0D3
:100524002E49CB5C9A4232D0012308222C492D4813
:1005340000F086FF264B1B78264A0021D154244B19
:100544001B78012223491944264801F0C0F910BD43
:10055400012307222449234800F072FF234C01237E
:100564000F222349204600F06BFF01230F2221496B
:10057400204600F065FF01230F221F49204600F0AA
:100584005FFF134B1B78134A0021D154D7E7012393
:1005940007221A49134800F053FF144C01230F2279
:1005A4001749204600F04CFF01230F221149204631
:1005B40000F046FF01230F221249204600F040FFBD
:1005C400034B1B78034A0021D154B8E7003801409B
:1005D400C0000020C4000020080000200400002007
:1005E400481B000878000020E81A000830000020AA
:1005F400F01A0008001B0008101B0008201B00084C
:10060400281B0008381B0008FFF7CCFE0B480C49D8
:100614000C4A002302E0D458C4500433C4188C425A
:10062400F9D3094A094C002301E013600432A242C1
:10063400FBD301F0AFF9FFF75DFE70470000002027
:1006440014000020741B000814000020C4020020C1
:10065400FEE7000010B504460E4B1A784FF47A7387
:10066400B3FBF2F30C4A1068B0FBF3F000F0A0F80F
:1006740068B90F2C01D901200AE0002221464FF06D
:10068400FF3000F077F8054B1C60002000E00120EB
:1006940010BD00BF0A000020000000200C00002054
:1006A40008B5074A136843F010031360032000F0F1
:1006B4004FF80F20FFF7CEFFFFF736FE002008BDEE
:1006C40000200240034A1168034B1B780B4413605B
:1006D400704700BF280100200A000020014B186861
:1006E400704700BF28010020002808DB0901C9B2B7
:1006F40000F1604000F5614080F80013704700F09D
:100704000F000901C9B2014B1954704714ED00E000
:1007140000B500F00700C0F1070CBCF1040F28BFBE
:100724004FF0040C031D062B0FD9C31E4FF0FF3EE0
:100734000EFA0CF021EA000199400EFA03FE22EAB7
:100744000E0241EA02005DF804FB0023EEE700001C
:10075400074AD36823F4E0631B041B0C000200F473
:10076400E060034343F0BF6343F40033D360704756
:1007740000ED00E010B50446054BD868C0F3022034
:10078400FFF7C6FF01462046FFF7AEFF10BD00BFCE
:1007940000ED00E0002807DB00F01F024009012300
:1007A4009340024A42F82030704700BF00E100E065
:1007B4000138B0F1807F0BD24FF0E0235861054A35
:1007C400F02182F823100020986107221A617047F3
:1007D4000120704700ED00E0034690F82120D2B2DA
:1007E400022A06D004228263002280F820200120FD
:1007F400704701680A6822F00E020A6001680A68FC
:1008040022F001020A60026CC06B012101FA02F2BB
:10081400426083F82110002083F820007047000014
:1008240008B590F82130DBB2022B03D00423836394
:10083400012008BD0268136823F00E0313600268E8
:10084400136823F00103136003684C4A93424ED9A2
:10085400783A934224D01432934230D014329342E3
:100864002FD0143293422FD0143293422FD014320B
:1008740093422FD0143293422FD002F562729342E6
:100884002ED0143293422DD0143293422CD01432F1
:10089400934202D04FF4803203E04FF4805200E0E0
:1008A4000122374B5A60012380F82130002380F85D
:1008B4002030436B002B5ED098470020B9E710220C
:1008C400EFE74FF48072ECE74FF48052E9E74FF41E
:1008D4008032E6E74FF48012E3E74FF08072E0E7FE
:1008E4000122DEE71022DCE74FF48072D9E7254AC3
:1008F400934224D01432934225D01432934224D00C
:100904001432934224D01432934224D014329342AA
:1009140024D01432934224D002F56272934223D03D
:100924001432934222D01432934221D0143293428F
:1009340002D04FF4803203E04FF4805200E00122F1
:10094400114B5A60AFE71022FAE74FF48072F7E7D1
:100954004FF48052F4E74FF48032F1E74FF4801201
:10096400EEE74FF08072EBE70122E9E71022E7E7B8
:100974004FF48072E4E700205BE700BF8000024090
:1009840000040240080002400000024070B582B03A
:100994000024A446ACE0854DAB4210D007D9844D69
:1009A400AB420CD005F58035AB4208D013E0A5F579
:1009B4008015AB4203D005F57025AB4207D18B6897
:1009C400002B5FD0012B58D04261082403E0A5F529
:1009D4008015AB42F3D0BEF1FF0F55D806464FEA5F
:1009E4008C0233680F25954023EA050304FA02F2CA
:1009F400134333604B6813F0805F77D06D4B9A6973
:100A040042F001029A619B6903F001030193019B87
:100A14004FEA9C02951C684B53F825600CF00305C3
:100A2400AD000F23AB4026EA0306644B984232D054
:100A340003F58063984200F0978003F58063984241
:100A440000F0948003F58063984200F0918003F5F0
:100A54008063984200F08E8003F58063984218D03A
:100A6400062319E0CC68B6E7CC680434B3E7CC6855
:100A74000834B0E7CC680C34ADE702610824AAE777
:100A84000024A8E70424A6E7061DACF1080292009E
:100A9400A7E7052300E00023AB4033430232464D71
:100AA40045F822304B6813F4801F65D0444A93689C
:100AB40043EA0E0393604B6813F4001F62D0404A6C
:100AC400D36843EA0E03D3604B6813F4003F5FD04E
:100AD4003B4A536843EA0E0353604B6813F4803F68
:100AE4005CD0374A136843EA0E0313600CF1010C1F
:100AF4000B6833FA0CF257D0012202FA0CF203EA23
:100B0400020E32EA0303F1D14B68122B3FF643AFD6
:100B1400122B3FF660AF01A555F823F0C309000876
:100B2400690A0008730A0008850A0008DB0900083E
:100B3400DB090008DB090008DB090008DB09000801
:100B4400DB090008DB090008DB090008DB090008F1
:100B5400DB090008DB090008DB090008DB090008E1
:100B64006D0A0008790A0008012395E7022393E738
:100B7400032391E704238FE7114A936823EA0E03C2
:100B8400936098E70E4AD36823EA0E03D3609BE789
:100B94000B4A536823EA0E0353609EE7084A13681E
:100BA40023EA0E031360A1E702B070BD0000221017
:100BB4000000311000100240000001400008014014
:100BC4000004014082B0084B1B68084AA2FB0323BF
:100BD4005B0A00FB03F3019300BF019B5A1E0192C1
:100BE400002BF9D102B0704700000020D34D6210F1
:100BF400002800F0F18170B582B00446036813F058
:100C0400010F2CD0994B5B6803F00C03042B1DD00F
:100C1400964B5B6803F00C03082B12D06368B3F5A2
:100C2400803F41D0002B55D103F1804303F50433B9
:100C34001A6822F480321A601A6822F480221A6038
:100C440037E08A4B5B6813F4803FE7D0874B1B681F
:100C540013F4003F03D06368002B00F0BF812368C6
:100C640013F0020F75D0814B5B6813F00C0F5FD04B
:100C74007E4B5B6803F00C03082B54D02369002BD4
:100C840000F08A807A4B01221A60FFF727FD05469F
:100C9400764B1B6813F0020F75D1FFF71FFD401B45
:100CA4000228F5D903209EE1704A136843F4803387
:100CB4001360636843B3FFF711FD05466B4B1B6874
:100CC40013F4003FCBD1FFF709FD401B6428F5D98D
:100CD400032088E1B3F5A02F09D0644B1A6822F4ED
:100CE40080321A601A6822F480221A60E1E703F164
:100CF4008043A3F53C331A6842F480221A601A68D0
:100D040042F480321A60D4E7FFF7E8FC0546574BFB
:100D14001B6813F4003FA2D0FFF7E0FC401B6428DB
:100D2400F5D903205FE1514B5B6813F4803FA5D1F3
:100D34004E4B1B6813F0020F03D02369012B40F0C4
:100D44004F814A4A136823F0F803616943EAC103F7
:100D54001360236813F0080F33D0A369002B5CD011
:100D6400434B0122C3F88024FFF7B8FC05463F4BF0
:100D74005B6A13F0020F21D1FFF7B0FC401B02287D
:100D8400F5D903202FE1394A136823F0F803616988
:100D940043EAC1031360DCE7354B00221A60FFF716
:100DA4009DFC0546314B1B6813F0020FD1D0FFF7B1
:100DB40095FC401B0228F5D9032014E10120FFF71C
:100DC40001FF236813F0040F00F09680274BDB69C2
:100DD40013F0805F34D1254BDA6942F08052DA6136
:100DE400DB6903F080530193019B0125214B1B68B0
:100DF40013F4807F26D0E368012B3DD0002B53D120
:100E040003F1804303F504331A6A22F001021A62E3
:100E14001A6A22F004021A6233E0154B0022C3F866
:100E24008024FFF75BFC0546104B5B6A13F0020F4E
:100E3400C7D0FFF753FC401B0228F5D90320D2E0AA
:100E44000025D3E70B4A136843F480731360FFF75C
:100E540045FC0646074B1B6813F4807FCBD1FFF794
:100E64003DFC801B6428F5D90320BCE0001002403F
:100E740000004242007000405F4A136A43F00103DD
:100E84001362E36833B3FFF729FC06465A4B1B6A27
:100E940013F0020F2FD1FFF721FC801B41F288339E
:100EA4009842F3D903209EE0052B09D0524B1A6ACD
:100EB40022F001021A621A6A22F004021A62E0E7BE
:100EC4004D4B1A6A42F004021A621A6A42F0010295
:100ED4001A62D6E7FFF702FC0646474B1B6A13F07B
:100EE400020F08D0FFF7FAFB801B41F288339842C7
:100EF400F3D9032077E0E5B9E369002B72D03E4AC9
:100F0400526802F00C02082A56D0022B17D03B4B31
:100F140000221A66FFF7E2FB0446374B1B6813F006
:100F2400007F47D0FFF7DAFB001B0228F5D9032026
:100F340059E0314AD36923F08053D361DCE72F4B66
:100F440000221A66FFF7CAFB05462B4B1B6813F0F9
:100F5400007F06D0FFF7C2FB401B0228F5D903200F
:100F640041E0236AB3F5803F1AD023494B6823F448
:100F74007413226A606A024313434B601F4B0122BD
:100F84001A66FFF7ABFB04461B4B1B6813F0007F8C
:100F94000ED1FFF7A3FB001B0228F5D9032022E0A2
:100FA400154A536823F40033A1680B435360DCE70C
:100FB400002018E0002016E0012B16D00E4B5B68D1
:100FC40003F48031226A914211D103F47013626AEE
:100FD40093420ED1002006E001207047012002E078
:100FE400012000E0002002B070BD0120FBE70120D9
:100FF400F9E70120F7E700BF001002400000424279
:101004000F4B5B6803F00C02082A01D00D487047AF
:10101400C3F383420C49885C13F4803F0BD0084B24
:101024005B68C3F34043094AD35C064A02FB00F001
:10103400B0FBF3F07047064B03FB00F0704700BFB2
:101044000010024000127A00581B0008541B0008CC
:1010540000093D00002800F0A08070B50D4604464C
:10106400524B1B6803F007038B420BD24F4A1368A1
:1010740023F007030B431360136803F007038B4249
:1010840040F08D80236813F0020F17D013F0040F83
:1010940004D0474A536843F4E0635360236813F071
:1010A400080F04D0424A536843F460535360404AE3
:1010B400536823F0F003A1680B435360236813F0D3
:1010C400010F31D06368012B20D0022B25D0384A80
:1010D400126812F0020F64D035494A6822F0030204
:1010E40013434B60FFF7FAFA0646314B5B6803F093
:1010F4000C036268B3EB820F16D0FFF7EFFA801B84
:1011040041F288339842F0D9032045E0284A126816
:1011140012F4003FE0D101203EE0254A126812F0AB
:10112400007FD9D1012037E0204B1B6803F007036F
:10113400AB420AD91D4A136823F007032B431360FB
:10114400136803F00703AB422DD1236813F0040F97
:1011540006D0174A536823F4E063E1680B435360F5
:10116400236813F0080F07D0114A536823F460531F
:10117400216943EAC1035360FFF742FF0C4B5B68EC
:10118400C3F303130B4AD35CD8400B4B18600B4BCF
:101194001868FFF75FFA002070BD01207047012036
:1011A400FAE70120F8E70120F6E700BF002002403B
:1011B40000100240D81A0008000000200C00002093
:1011C400014B1868704700BF0000002008B5FFF706
:1011D400F7FF044B5B68C3F30223034AD35CD84094
:1011E40008BD00BF00100240D01A000808B5FFF780
:1011F400E7FF044B5B68C3F3C223034AD35CD840C4
:1012040008BD00BF00100240D01A0008026802F1B5
:101214000C0353E8003F23F490730C3242E800318E
:101224000029F3D1026802F1140353E8003F23F0CC
:101234000103143242E800310029F3D1036B012B7E
:1012440005D0202380F842300023036370470268EE
:1012540002F10C0353E8003F23F010030C3242E880
:1012640000310029F3D1ECE790F84130DBB2212BB7
:1012740001D0022070478368B3F5805F17D0036AFA
:101284005A1C02621A7803685A60C38C9BB2013BF1
:101294009BB2C3844BB90268D36823F08003D36044
:1012A4000268D36843F04003D360002070470369A9
:1012B400002BE4D1036A1B880268C3F3080353605C
:1012C400036A02330362E0E710B504460268136957
:1012D40023F44053C1680B431361836802691343C9
:1012E40042691A430168CB6823F4B05323F00C031A
:1012F4001343CB600268536923F4407381690B4341
:1013040053610268134B9A4220D0FFF75FFF0246F5
:1013140002EB820202EB820263689B00B2FBF3F2EF
:101324000D48A0FB02314909642303FB11231B016F
:101334003233A0FB03035B0903F0F00202EB01125A
:1013440003F00F03216813448B6010BDFFF74EFFB9
:101354000246DDE7003801401F85EB512DE9F843D3
:1013640005460F4616469946DDF820802B681C6812
:1013740037EA04040CBF01240024B4422DD1B8F18F
:10138400FF3FF3D0B8F1000F05D0FFF7A7F9A0EBAA
:1013940009004045EAD92A6802F10C0353E8003FEA
:1013A40023F4D0730C3242E800310029F3D12A68C7
:1013B40002F1140353E8003F23F00103143242E81E
:1013C40000310029F3D1202385F8413085F84230DB
:1013D400002385F84030032000E00020BDE8F883B6
:1013E40060B310B5044690F8413013B3242384F855
:1013F40041302268D36823F40053D3602046FFF7BA
:1014040063FF2268136923F49043136122685369CC
:1014140023F02A0353612268D36843F40053D36052
:1014240000206064202384F8413084F842306063F3
:1014340010BD80F84030FEF7EBFFD7E7012070477E
:101444002DE9F04182B01E4690F84130DBB2202BEA
:101454004BD104460D46904600294AD00AB90120D2
:1014640044E000234364212380F84130FFF736F938
:101474000746A4F82480A4F82680A368B3F5805F07
:1014840002D04FF000080FE02369FBB14FF00008D1
:101494000AE038F8023B2268C3F308035360E28C85
:1014A40092B2013A92B2E284E38C9BB28BB1009681
:1014B4003B46002280212046FFF750FFD8B9002D7B
:1014C400E7D015F8012B23685A60E8E7A846002501
:1014D400EAE700963B46002240212046FFF73EFF04
:1014E40058B9202384F8413000E0022002B0BDE85E
:1014F400F0810120FAE70320F8E70320F6E77047BC
:1015040008B50168CA6822F04002CA60202280F847
:101514004120FFF7F4FF002008BD704708B5406A7A
:101524000023C385C384FFF7F8FF08BD704790F814
:101534004230DBB2222B69D18368B3F5805F4FD090
:10154400826AB3F5805F04D0002B56D10369002B67
:1015540053D103685B681370836A01338362C38D5C
:101564009BB2013B9BB2C385002B51D100B583B024
:101574000268D36823F02003D3600268D36823F49D
:101584008073D3600268536923F0010353612023FD
:1015940080F8423000234363036B012B33D10023D3
:1015A4000363026802F10C0353E8003F23F01003C5
:1015B4000C3242E800310029F3D103681A6812F0B2
:1015C400100F06D0002201921A6801925B68019301
:1015D400019B818DFFF7AAFF002003B05DF804FB97
:1015E4000269002AACD1826A03685B68C3F308030A
:1015F4001380836A02338362B1E703685B6803F094
:101604007F031370A8E7FEF77DFFE5E7022070472C
:101614000020704710B582B0044602681368D06891
:10162400516913F00F0F09D113F0200F0CD010F0F3
:10163400200F09D02046FFF77AFF16E011F00101D0
:1016440015D110F4907F12D1216B012979D013F0B8
:10165400800F03D010F0800F40F0138113F0400F7F
:1016640003D010F0400F40F0108102B010BD13F011
:10167400010F06D010F4807F03D0626C42F00102A7
:10168400626413F0040F04D019B1626C42F00202D8
:10169400626413F0020F04D019B1626C42F00402C8
:1016A400626413F0080F07D010F0200F00D119B1B5
:1016B400626C42F008026264626C002AD5D013F0B6
:1016C400200F02D010F0200F29D123685B6903F0AA
:1016D4004003626C12F0080F00D163B32046FFF799
:1016E40095FD23685B6913F0400F20D0226802F156
:1016F400140353E8003F23F04003143242E800315E
:101704000029F3D1E36B73B1624A5A63E06BFFF7CC
:1017140087F80028A9D0E06B436B9847A5E72046DB
:10172400FFF705FFD1E72046FFF7F7FE9DE72046C8
:10173400FFF7F3FE99E72046FFF7EFFE002363640B
:1017440093E713F0100F82D010F0100F3FF47FAF27
:10175400002301931368019353680193019B536918
:1017640013F0400F51D0E26B13685B689BB2002BFF
:101774003FF47BAFA18D99427FF677AFE385936900
:10178400202B37D0226802F10C0353E8003F23F4E6
:1017940080730C3242E800310029F3D1226802F14F
:1017A400140353E8003F23F00103143242E80031EC
:1017B4000029F3D1226802F1140353E8003F23F017
:1017C4004003143242E800310029F3D1202384F885
:1017D400423000232363226802F10C0353E8003FE4
:1017E40023F010030C3242E800310029F3D1E06BFE
:1017F400FEF7F2FF02236363A18DE38D9BB2C91A46
:1018040089B22046FFF792FE2FE7A18DE38D9BB2AC
:10181400C91A89B2E38D9BB2002B3FF426AF00298D
:101824003FF423AF226802F10C0353E8003F23F492
:1018340090730C3242E800300028F3D1226802F1A0
:10184400140353E8003F23F00103143242E800304C
:101854000028F3D1202384F8423000232363226834
:1018640002F10C0353E8003F23F010030C3242E86A
:1018740000300028F3D1022363632046FFF756FEAD
:10188400F3E62046FFF7F0FCEFE62046FFF738FECC
:10189400EBE600BF2115000881628285C285002322
:1018A4004364222380F84230036923B10268D36879
:1018B40043F48073D3600268536943F001035361B6
:1018C4000268D36843F02003D3600020704708B552
:1018D40090F84230DBB2202B08D149B10AB901207B
:1018E40008BD00230363FFF7D7FFF9E70220F7E7FA
:1018F4000120F5E770B5860747D0541E002A3ED074
:101904000346CAB201E0013C39D303F8012B9D0719
:10191400F9D1032C2CD9CDB205EB05250F2C1A4691
:1019240005EB054534D9A4F1100C2CF00F0603F196
:10193400100EB6444FEA1C1C156055609560D560C6
:1019440010327245F8D10CF1010214F00C0F03EBC4
:10195400021204F00F0C13D0ACF1040323F00303C0
:101964000433134442F8045B9A42FBD10CF00304A1
:101974002CB1C9B21C4403F8011B9C42FBD170BDBD
:1019840064461346002CF4D1F9E703461446C0E735
:10199400A446E1E770B50F4B0F4DAB42A3EB050630
:1019A40007D00024B61055F8043B01349847A642EA
:1019B400F9D800F07FF8094D094B5E1BAB424FEAA2
:1019C400A60606D0002455F8043B01349847A642E5
:1019D400F9D870BD681B0008681B0008681B000864
:1019E400701B0008704700BF704700BF024B13B163
:1019F400024800F005B8704700000000111A000802
:101A0400002301461A46184600F014B838B5074DAD
:101A1400074C2C1BA41005D0013C55F8043D9847F5
:101A2400002CF9D1BDE8384000F04AB8741B000816
:101A3400701B00082DE9F8431B4D0646286898469C
:101A44000F469146FFF7CEFF184B1C681CB328685D
:101A540065681F2D22DC4EB96B1C0235636044F8A7
:101A64002570FFF7C1FF0020BDE8F883012304EBD4
:101A74008501C1F88890D4F88821AB401A43022E1E
:101A8400C4F88821C1F80881E6D1D4F88C211A431E
:101A9400C4F88C21E0E7064C1C60D8E7FFF7A4FFEC
:101AA4004FF0FF30E0E700BF1000002030010020BD
:101AB40034010020F8B500BFF8BC08BC9E4670474E
:0C1AC400F8B500BFF8BC08BC9E46704797
:101AD00000000000010203040000000000000000FC
:101AE00001020304060708094D6F6465310D0A0001
:101AF00023303030503235303054303130302100E6
:101B000023303031503230303054303130302100D9
:101B100023303032503035303054303130302100C5
:101B20004D6F6465320D0A0023303030503035304F
:101B300030543031303021002330303250323530A3
:101B400030543031303021004552524F52210D0A6D
:101B50000000000001020000020304050607080956
:081B60000A0B0C0D0E0F101012
:081B6800F11900084D0200080C
:041B70002502000842
:101B74000024F400320000003100010010000000D5
:041B84002C01002010
:040000050800060DDC
:00000001FF
