:020000040800F2
:10000000280A0020DD010008B12D00084D28000855
:100010002D2D0008E90D00089133000800000000B4
:10002000000000000000000000000000572E000843
:10003000EB0D000800000000552E0008592E0008A6
:10004000F7010008F7010008F7010008F7010008B0
:10005000F7010008F7010008F7010008F7010008A0
:10006000F7010008F7010008F7010008F701000890
:10007000F7010008F7010008F7010008F701000880
:10008000F7010008F7010008F7010008F701000870
:10009000F7010008F7010008F7010008F701000860
:1000A000F7010008F7010008F7010008F701000850
:1000B000D92E0008E52E0008F12E0008F7010008EF
:1000C000F7010008F7010008F7010008F701000830
:1000D000F701000885330008F7010008F701000860
:1000E000F7010008F7010008F7010008F701000810
:1000F000F7010008F7010008F7010008F701000800
:10010000F7010008F7010008FD2E0008F7010008BC
:10011000F7010008F7010008092F0008F70100089F
:10012000F7010008F7010008F7010008F7010008CF
:1001300000F002F800F042F80AA090E8000C8244B7
:100140008344AAF10107DA4501D100F037F8AFF294
:10015000090EBAE80F0013F0010F18BFFB1A43F0A5
:1001600001031847C03D0000E03D0000103A24BFE5
:1001700078C878C1FAD8520724BF30C830C144BF0C
:1001800004680C607047000000230024002500264E
:10019000103A28BF78C1FBD8520728BF30C148BFEA
:1001A0000B6070471FB59DE8030000F0A5FB00F051
:1001B00099F81FBD10B500F0FEF810BD00F061F910
:1001C0001146FFF7EFFF03F01DF900F065FB03B4E4
:1001D000FFF7F0FF03BC00F021FD00000948804755
:1001E00009480047FEE7FEE7FEE7FEE7FEE7FEE719
:1001F000FEE7FEE7FEE7FEE704480549054A064B31
:1002000070470000D72E00083101000828040020A4
:10021000280A002028060020280600200FB40449E0
:1002200010B503AA029800F02FF810BC5DF814FB7B
:100230001C0300204FF0000200B51346944696467A
:10024000203922BFA0E80C50A0E80C50B1F12001E9
:10025000BFF4F7AF090728BFA0E80C5048BF0CC097
:100260005DF804EB890028BF40F8042B08BF7047F5
:1002700048BF20F8022B11F0804F18BF00F8012B67
:100280007047704770477047074B70B50D467B4409
:1002900000F011F80446284600F020F810B14FF0A5
:1002A000FF3070BD204670BD5731000001694A1C07
:1002B00002610878704700B58FB0CDE901310021A7
:1002C000059105497944CDE903101146684600F0CF
:1002D00024F90FB000BD0000E5FFFFFF007B00F038
:1002E0008000704710B542485421FFF7A3FF4148F2
:1002F0005421FFF79FFF40485421FFF79BFF3F49E0
:100300003B483C4A3F4B08603D490A603A49196006
:10031000531C0365481C1065012008653B48344A9E
:1003200039A1784400F01CFA20B9384878440A38DA
:1003300000F0B8FA37482F4A35A1784400F010FA97
:1003400020B9344878440A3800F0ACFA32482A4AD6
:100350002FA1784400F004FA20B92F4878440A38D5
:1003600000F0A0FA40232248DC000021224600F0E1
:10037000D3F920B125487844543800F093FA1D4849
:1003800022464023002100F0C7F920B121487844DB
:10039000543800F087FA184822461023002100F054
:1003A000BBF9002806D01C487844BDE810405638F8
:1003B00000F078BA10BD104870B5006D20F001044F
:1003C0000B4800F043FA0B4800F040FA0A4800F0EE
:1003D0003DFA09E0206D20F00105204600F036FAD4
:1003E000204600F073F82C46002CF3D170BD0000BD
:1003F000C80200201C030020700300201C00002005
:10040000200000202400002072000000F23B0000C9
:1004100077000000DE3B0000CA3B00000EB5CDE9CE
:10042000000100F0DBFB029069460120ABBE0EBD6F
:1004300008B5694600900220ABBE08BD1FB58DE827
:10044000070069460520ABBE04B010BD1FB58DE89E
:100450000F0069460620ABBEF6E708B56946009076
:100460000920ABBE08BD1CB5CDE9000169460A20D4
:10047000ABBE1CBD704708B5694600900C20ABBEF2
:1004800008BD754600F016FAAE46050069465346AB
:1004900020F00700854618B020B5FFF7ADFEBDE897
:1004A00020404FF000064FF000074FF000084FF0DB
:1004B000000B21F00701AC46ACE8C009ACE8C0096C
:1004C000ACE8C009ACE8C0098D46704770B5044679
:1004D000051F00F0F5F90068002C14BF446870BDDA
:1004E000002C18BFAC423CBF20466468F8D30168BA
:1004F0000A18AA4218BF456003D12A68054611446C
:10050000016028684119A1421CBF6C6070BD616820
:10051000696021680844286070BD2DE9F0410646F5
:100520000024D6E90170F5688046304603E0414674
:10053000B847641C3046A8470028F8D12046BDE8DB
:10054000F0812DE9F04705460C46C86820F42010DC
:1005500040F48000C860800602D5084600F0FDFA2D
:10056000E06841F282014FF0FF390140022903D0D7
:10057000204600F09BFAB5E000F42041B1F5004FB1
:100580000FD1C00306D56168E06A884200D80846EA
:10059000606006E02069E06260606069FFF76BFF01
:1005A000A061A0680022EEB200280DDAE1688B0598
:1005B0000AD4C043A06041F490302260E0606068DB
:1005C000411C61600670A5E0E0689046226040F43E
:1005D0000050E060206968BB6069FFF73EFF0127BB
:1005E00004F12405A0B1A08910F4407F08D0E0698F
:1005F00000F0B1F9206118B1E06840F4006016E045
:10060000E7612561E06820F4407040F480600EE00E
:10061000E06900F0A0F900282061F1D0E06840F422
:10062000006010F4407FE06002D140F48070E06030
:1006300020696060E06825696FF0010AC1051FD577
:100640006168E06A884200D80846411B04D022460F
:10065000284600F035FAF0BBE068010203D5E562F8
:10066000C4E9015854E0691CE1626160E16940F449
:100670008030491EC4E9021030462E70BDE8F08774
:10068000010202D500F480320AE06068411C61601A
:100690000670E0680A2E40F48030E06006D0002248
:1006A000E16A6068814203D90B4602E00122F7E764
:1006B0000346A7895B1B7F0503D4E7699F4200DDE2
:1006C000E2B1814200D80146E5620F1AC4E901583F
:1006D000002B09DD00E005E022461946284600F01F
:1006E000EFF908B14846C9E747B1A069E56265601E
:1006F000C01BA061E06840F01000E060E06800020C
:1007000008D56168A069E562491B08446560A0617D
:100710005046B3E73046B1E770B5C468A50713D0BB
:10072000650211D4B2F5807F09D0B2F5007F06D002
:10073000B2F5806F08D1012300F1240106E05D1EAF
:100740006FF07F46B54201D3012070BD0161C361E6
:10075000416024F470611143C160002070BD00004D
:100760002DE9F0410C4607461646104600F06EF89B
:100770002078611C61280AD0722802D077283CD1E9
:1007800002E00125002405E00225042402E00824FB
:1007900048F2020511F8010B2B2806D0622809D077
:1007A00011F8010C74280AD00BE045F0030544F061
:1007B0000204EFE745F0040544F00104EAE744F0E1
:1007C000100438462146FFF729FE411C15D00021B0
:1007D000316171604FF40071F560F1617061200763
:1007E00004D530460222002100F0E4F8306D40F0DC
:1007F000010030653046BDE8F0810020FBE72DE9BF
:10080000F0410D460646104C206DC10704D041084A
:1008100004D020F00104F7E722460EE0542000F057
:100820009AF807000ED0206D47F0010108435421CB
:1008300020653846FFF7FEFC3A4629463046BDE8BB
:10084000F0418DE70020D6E7C80200202DE9F047EF
:1008500004464FF000094FF0FF37C568D4E904861D
:10086000A80707D0204600F055F93046FFF7E0FD15
:10087000002802DA3846BDE8F087280502D5404650
:10088000FFF724FE4C212046FFF7D4FC206D20F01A
:10089000010020654846EEE70446AFF3008020469D
:1008A000FFF795FC10B500F07FF9BDE8104000F0AF
:1008B00075B9000000487047C4030020704700006D
:1008C00000487047CC03002070477047704770475E
:1008D00038B504460A4600206946AFF30080002878
:1008E00008BF38BD02460099204600F0A4F9012057
:1008F00038BD012000F0F3B9F8B5AFF3008005462C
:1009000000200C46102000BF0646A819A0420DD9B1
:10091000324669460020AFF30080070008BF00F0B0
:10092000DEF90098A04218BF0546C419FFF7C8FFBA
:1009300005600746F01D20F007004619284600F024
:1009400073F9B44208BFF8BDA21B31463868BDE850
:10095000F84000F070B970B50646FFF7B1FF0568C2
:1009600006F10B0020F00704B4429CBF002070BDCC
:100970002B466A68BAB11068A04210D304F108018E
:1009800088423CBF5068586007D3516810194160D5
:100990001168091B016058601460101D70BD13467A
:1009A0005268002AE7D121462846FFF791FF002828
:1009B000DED170BD2DE9F041044616460D4647696B
:1009C000007B80072ED03846FFF747FD50BB3EB373
:1009D000012E02D0022E25D104E0204600F045F978
:1009E00005441DE03846FFF746FDE168002841F068
:1009F0001001E16005DA204600F058F80120BDE85A
:100A0000F081C9030BD56268E16A914200D81146B2
:100A1000A26911442269891A814200DD0846054411
:100A2000002D01DA0220EAE7E16A6068E2688142AB
:100A300006D29103E06203D522F4003141F01002A6
:100A4000A6690027AE4213DCE16A814201D90B4658
:100A500000E0034603EB060C2369ACEB030CAC454A
:100A600006DD814201D98C4600E084469C4505D1D3
:100A7000A760276042F02000A5620DE0AD1BE6698B
:100A8000AE1B8142A66000D90846C01A281A206011
:100A90005819606022F0200003490840E0600020FF
:100AA00084F84870ABE70000BFCFD7FFC16821F4DE
:100AB000001141F08001C160002181600160704738
:100AC0002DE9F047814614460E464FF0FF38324874
:100AD000D5685769054209D03846A169FFF7C3FCBC
:100AE000002811DB2C48C0430540E5602B46324608
:100AF00049463846FFF7A2FCA16920F00042B21A2D
:100B000011440028A16103D02046FFF7CFFF4046E3
:100B1000BDE8F08770B504460569C06A616888421F
:100B200000D80846E16821F42011E160C90312D51C
:100B3000A84208D02246411B2846FFF7C1FF10B14A
:100B40004FF0FF3070BD0020E562C4E90150E0685D
:100B500020F48030E060002070BD10B50446C0680D
:100B600020F02000E060A16AA06988420DD02046F4
:100B7000FFF7D0FFE06820F4405040F01000E06044
:100B8000A06AA0612069E062606044F24001E06810
:100B90008843E06010BD000010000200002801D072
:100BA00000F03CB87047000010B5014602A000F00C
:100BB0007DF8012010BD000053494752545245446E
:100BC0003A2052656469726563743A2063616E27E6
:100BD00074206F70656E3A200000000010B5431C51
:100BE00002E010F8011B71B18107FAD14FF0013218
:100BF00002C88C1A8C4314EAC211F9D0C01A0A0632
:100C000003D0C01E10BDC01A10BD0A0401D0801E42
:100C100010BD0902FCD0401E10BD00000149182083
:100C2000ABBEFEE72600020000210160C0E9011012
:100C3000704710207047034640688C46002818BF54
:100C400088423CBF03464068F8D31868184488427D
:100C500007D00CF1030020F00700001D411A521AC2
:100C60000146081D0A60FFF731BC10B50146C26895
:100C7000900703D0900607D5886A0AE000F03EF896
:100C800001210160881E10BD8B69486818440B69FA
:100C9000C01A91F848301BB191F84910401A10BDA4
:100CA0001103FCD50028FADD401E10BD70B50546C5
:100CB0000C460A2000E06D1C00F018F835B12878C9
:100CC0000028F8D102E0641C00F010F814B120787C
:100CD0000028F8D1BDE870400A2000F007B810B530
:100CE00000F010F8BDE81040FFF758BF08B569469E
:100CF0008DF800000320ABBE08BD0000004870471F
:100D0000C403002010B5012805D0002103A0FFF77F
:100D1000CDFF012010BD09A1F8E70000534947525B
:100D2000544D454D3A204F7574206F6620686561BB
:100D300070206D656D6F7279000000003A20486583
:100D40006170206D656D6F727920636F727275705E
:100D50007465640070B5044600688168C943C907BA
:100D600017D1816821F00101816000F059FB05462F
:100D70000AE000BF00F054FB401B022804D92068A1
:100D80008068C043C00706D020688068C043C007A1
:100D9000F0D0002070BDA06A40F01000A062E06AB0
:100DA00040F00100E062012070BD000010B502F0CB
:100DB00097FB0C49B1F90020C2EB02421044486095
:100DC0004868886848688860486802F02DFF02F02B
:100DD00015F802F00DFF02F071FBBDE8104002F0C3
:100DE00085BB000000000020FEE7704772B6FEE7FA
:100DF00010B5104C02F0DEFA02F082FBFFF7D6FFCE
:100E0000D4E902010022134602F06CFD02D201F087
:100E1000AFFF0AE0D4E9020102F0B6FB002800DAD5
:100E2000404202F00EFCC4E90201BDE8104001F0AE
:100E30007FBF0000B8020020F8B50024009490F8AD
:100E400024202546012A12D0012280F824204A6855
:100E50001F23072A0DD20668776B521E02EB82020F
:100E600093409F430B6893401F43776319E0022030
:100E7000F8BD06680D2A0AD2376BD21F02EB820238
:100E800093409F430B6893401F43376309E0F76A21
:100E90000D3A02EB820293409F430B6893401F433D
:100EA000F7620A68072306680A2A0AD3F7680A3A2B
:100EB00002EB420293409F438B6893401F43F760CD
:100EC00008E0376902EB420293409F438B689340EE
:100ED0001F4337610A68102A01D0112A20D1124B12
:100EE00002689A4217D193681B0219D4936843F49D
:100EF000000393600968102912D10C490C4A096853
:100F0000B1FBF2F101EB8101490000E0491E0091C3
:100F10000029FBD104E0816A41F0200181620124B3
:100F200080F824502046F8BD00240140180000201D
:100F300040420F002DE9F04104004FF0000514D0AD
:100F4000A06A002628B9E66284F82460204600F0F2
:100F500083F82046FFF7FEFEA16A01F0100101436D
:100F600004D0A06A40F01000A0626BE0A16A21F4F6
:100F7000885141F00201A162334923688B42E16943
:100F800004D1B1F5402F01D14FF40021277B4FF45C
:100F9000807C41EA470261680A43A168614509D043
:100FA000012907D05FF0000194F814E0BEF1010FB1
:100FB00002D00AE06146F7E7C7B1A76A47F0200709
:100FC000A762E76A47F00107E7625F6827F46947AD
:100FD0000F435F60236899681C4F39401143996043
:100FE000A16861450BD0012909D00CE0DFF860E071
:100FF000A7690EEB47370F4347F40061E5E7218A05
:101000000D05A5F580152168CB6A23F470032B43E9
:10101000CB62216889680F4B1940914208D1E66282
:10102000A16A21F0020141F00101A162BDE8F08155
:10103000A06A20F0020040F01000A062E06A40F0D8
:101040000100E0620120F1E7003C0140FDF7E1FF13
:1010500000E0FFFFFE0E1FFF00B585B000210091EC
:1010600001910291039100680E49884218D10E48FF
:10107000816941F400718161816901F40071049119
:10108000816941F0040181618069694600F00400D2
:1010900004900C20009003200190044800F0C4F854
:1010A00005B000BD002401400010024000080140CE
:1010B00010B590F821100022022905D00421816387
:1010C00080F82020012010BD01680B6823F00E037A
:1010D0000B6001680B6823F001030B6090F840304F
:1010E000C46B012101FA03F3636080F8211080F8DA
:1010F0002020104610BD00002DE9F05F90F821106F
:101100000024022903D004218163012485E00168C1
:101110000A6822F00E020A6001680A6822F00102E1
:101120000A603F4E3E4FB215DFF8F4C0DFF8F09092
:10113000DFF8ECA0DFF8E8B0DFF8E4E00168783F22
:1011400013011502ACF1640CA9F15009AAF13C0A93
:10115000ABF1280BAEF1140E4FF48018B14227D931
:10116000B9420ED0614512D049451DD0514518D025
:10117000594518D0714501D1424615E0294EB1427A
:1011800001D1012210E0274E1436B14201D11022C4
:101190000AE0244E2836B14206D0224A3C3291421F
:1011A00001D11A4600E02A461E49091F0A602BE0B9
:1011B000B94213D0614517D0494522D051451DD0C1
:1011C00059451DD0714501D142461AE0B14202D1C4
:1011D0004FF0807215E0134EB14201D1012210E0B0
:1011E000104E1436B14201D110220AE00D4E2836BD
:1011F000B14206D00B4A3C32914201D11A4600E07E
:101200002A46074980394A60012180F821100021CF
:1012100080F82010416B01B188472046BDE8F09F5F
:1012200080000240080402402DE9F84FDFF8C89121
:101230000024A9F1040B23460F2709F1040AABF19E
:10124000040ED1E00125A54006EA0502AA4276D1A6
:10125000DFF8A8C14E68A6EB0C0866452BD00DDC64
:10126000032E34D005DC36B3012E19D0022E2FD137
:101270001BE0112E16D0122E2AD119E0B8F5881FC6
:1012800019D006DCB8F5803F15D0B8F5801F1FD106
:1012900011E0B8F5001F0ED0B8F5041F18D10AE010
:1012A000CB6815E0CB681B1D12E0CB6808330FE05C
:1012B000CB680C330CE08B682BB1012B4FF008038B
:1012C00003D0456104E0042302E0056100E000234F
:1012D000FF2A01D8064601E000F104064FEA840522
:1012E00001D9A5F12005D6F8008007FA05FC28EA07
:1012F0000C0803FA05F548EA0508C6F800804D68B1
:10130000ED0070D53E4DAE6946F00106AE61AD69A7
:1013100024F0030605F0010500953A4D06EB050C97
:10132000DCF80850A607360F07FA06F825EA080584
:10133000DFF8D480404503D14FF0000825E052E0AB
:10134000DFF8C880404502D14FF001081DE0DFF80A
:10135000C080404502D14FF0020816E0DFF8B480AB
:10136000404502D14FF003080FE0DFF8AC80404564
:1013700002D14FF0040808E0DFF8A080404502D118
:101380004FF0050801E04FF0060808FA06F848EAB1
:101390000508CCF808804D68D9F80060ED024D468C
:1013A00001D5164300E096432E604D68DAF80060E0
:1013B000AD02554601D5164300E096432E604D68B8
:1013C000DBF80060AD035D4601D5164300E09643AF
:1013D0002E604D68DEF80060ED03754601D51643BA
:1013E00000E096432E60641C0A681646E2407FF4D3
:1013F00029AFBDE8F88F000008040140000011107B
:10140000001002400000014000080140000C0140B3
:10141000001001400014014000180140001C014070
:1014200001488068704700000C0000200248816875
:1014300002781144816070470C000020074810B505
:10144000016841F010010160032000F075F80F20E1
:1014500000F006F800F024F8002010BD0020024043
:1014600070B50D4D04464FF47A712878B1FBF0F059
:101470000A490968B1FBF0F000F052FB48B9102CA2
:1014800007D200222146501E00F036F800206C6082
:1014900070BD012070BD00000C000020180000206D
:1014A0000C4808B5816941F001018161816901F051
:1014B00001010091C16941F08051C161C06900F032
:1014C000805000900448416821F0E06141F00071D3
:1014D000416008BD0010024000000140002809DB07
:1014E00000F01F02012191404009800000F1E0203E
:1014F000C0F8001170470000F0B40E4B1B680C469A
:10150000C3F30223C3F10705042D00D90425191DD7
:10151000072901D2002300E0DB1E012606FA05F1AF
:10152000491E214099409E40761E16403143F0BC32
:1015300001F02FBF0CED00E0064900F0070208683B
:101540004FF6FF03184040EA0220034A10430860A8
:10155000704700000CED00E00000FA052DE9F843AB
:1015600005460078354CC00754D0E0690026C0001D
:1015700008D4E06940F08050E061E069012600F0A5
:10158000805000902E480168C90512D40168804639
:1015900041F480710160FFF743FF074605E000BF9B
:1015A000FFF73EFFC01B642823D8D8F80000C00511
:1015B000F6D5206A10F4407021D0A98801F440715A
:1015C00081421CD0206A1F49012220F440700A6029
:1015D00000220A602062C00711D0FFF721FF0746F2
:1015E00041F2883808E000BFFFF71AFFC11B4145F0
:1015F00002D90320BDE8F883206A8007F4D5206A69
:10160000696820F44070084320621EB1E06920F050
:101610008050E0612878800705D56068A96820F4CB
:101620004040084360602878C00605D56068696955
:1016300020F48000084360600020DBE700100240D7
:1016400000700040400442422DE9F0470F4605007B
:1016500061D0434E306800F00700B84209D23068CC
:1016600020F0070038433060306800F00700B842CF
:1016700051D128683B4C810712D5400703D56068DB
:1016800040F4E06060602878000703D5606840F4AB
:10169000605060606068A96820F0F00008436060F6
:1016A0002878C00728D06868012810D0216802284F
:1016B00010D0890700292EDA616821F00301014367
:1016C0006160FFF7ADFE804641F288390DE0216888
:1016D0008903EFE78901EDE7FFF7A2FEA0EB080120
:1016E000494502D90320BDE8F0876068696800F0C9
:1016F0000C00B0EB810FEFD1306800F00700B8426A
:101700000BD9306820F0070038433060306800F0B3
:101710000700B84201D00120E5E72878400705D549
:101720006068E96820F4E06008436060287800079A
:1017300006D56068296920F4605040EAC100606005
:1017400000F038F86168084AC1F30311515CC840E1
:101750000649086006480068FFF782FE0020C2E7DD
:101760000020024000100240003F00081800002046
:10177000100000200448054900684968044AC1F384
:101780000221515CC8407047180000200010024040
:10179000103F00080448054900684968044AC1F33D
:1017A000C221515CC8407047180000200010024060
:1017B000103F00080E4A51680E4801F00C03042B3C
:1017C00011D0082B0FD10C48C1F38343C903C05C6F
:1017D0000AD55168084AC1F34041921E515C054A3E
:1017E0005043B0FBF1F07047044948437047000094
:1017F0000010024000127A00F03E000800093D008F
:101800002DE9F84F040070D02078C04DC00749D0B2
:101810006868C0F38100012807D06868C0F38100C0
:10182000022809D16868C00306D52868800339D525
:1018300060680028E7D035E06068B0F5803F0BD0E5
:1018400010B1B0F5A02F11D0286820F480302860A6
:10185000286820F4802002E0286840F48030286066
:10186000606890B1FFF7DCFD06460AE0286840F4A6
:1018700080202860F0E700BFFFF7D2FD801B6428BE
:1018800073D828688003F7D50CE0FFF7C9FD06463A
:1018900005E000BFFFF7C4FD801B6428F0D828686E
:1018A0008003F7D420789A4E80074FF001094FF05B
:1018B000000839D5686810F00C0F07D06868C0F3CD
:1018C0008100022809D16868C00306D4286880070F
:1018D00014D52069012808D110E02069B0B1C6F8FC
:1018E0000090FFF79DFD074605E00AE1FFF798FD30
:1018F000C01B0228C4D828688007F7D5286861690A
:1019000020F0F80040EAC10028600DE0C6F8008031
:10191000FFF786FD074604E0FFF782FDC01B0228A3
:1019200023D828688007F7D4207800072CD5794879
:10193000A169D9B1C0F80090FFF772FD074604E035
:10194000FFF76EFDC01B02280FD8686A8007F7D525
:1019500071484FF4FA510068B0FBF1F0009000BFFD
:101960000098411E0091FAD20EE080E0C0F800809D
:10197000FFF756FD074604E0FFF752FDC01B0228A3
:1019800075D8686A8007F7D42078400760D5E86981
:101990000027C00008D4E86940F08050E861E86999
:1019A000012700F0805000905C480168C90513D4FD
:1019B0000168834641F480710160FFF731FD824682
:1019C00006E000BFFFF72CFDA0EB0A0064284ED80C
:1019D000DBF80000C005F5D5E06801280AD008B1A1
:1019E000052813D0286A20F001002862286A20F018
:1019F000040002E0286A40F001002862E06841F239
:101A0000883B98B1FFF70CFD82460BE0286A40F056
:101A100004002862EEE700BFFFF702FDA0EB0A0119
:101A200059455AD8286A8007F6D50CE0FFF7F8FC2C
:101A3000824605E0FFF7F4FCA0EB0A0159454CD8BB
:101A4000286A8007F6D41FB1E86920F08050E86169
:101A5000E06988B36968C1F38101022944D0022892
:101A6000C6F8608004D0FFF7DBFC044638E034E0C1
:101A7000FFF7D6FC074604E0FFF7D2FCC01B0228A4
:101A80002BD828688001F7D4206AB0F5803F05D1B3
:101A90006868A16820F4003008436860D4E9080150
:101AA0000843696821F4741108436860C6F86090BF
:101AB000FFF7B6FC044606E025E000BFFFF7B0FCE8
:101AC000001B022809D828688001F7D51BE000BF59
:101AD000FFF7A6FC001B022802D90320BDE8F88FFF
:101AE00028688001F4D40EE00128F7D06868226AE3
:101AF00000F48031914204D1616A00F47010884290
:101B000001D00120EAE70020E8E7000000100240D1
:101B10000000424280044242180000200070004051
:101B200010B5401EB0F1807F01D3012010BD4FF0F1
:101B3000E02460610F21601701F02BFC0020A06100
:101B400007202061002010BD7047704710B590F845
:101B50003C20012A22D0012280F83C20CA688C68EF
:101B600022F4407222434C6822F4806222430C68C3
:101B700022F4006222430C6922F4805222434C6911
:101B800022F400522243C969002322F480420A430E
:101B900001684A6480F83C30002010BD022010BD6E
:101BA00070B590F83C20012A2CD0012480F83C40EC
:101BB000022280F83D2003685A689D6822F0700672
:101BC0000A6832435A60104B02689A420ED00F4B9B
:101BD0009A420BD0B2F1804F08D00D4B9A4205D0FB
:101BE0000C4B9A4202D00C4B9A4204D1496825F022
:101BF00080031943916080F83D40002180F83C103B
:101C0000084670BD022070BD002C01400034014028
:101C10000004004000080040000C004010B5040023
:101C200003D094F83D0010B107E0012010BD002062
:101C300084F83C00204600F01FF8022084F83D00A4
:101C4000211D206801F066F9012084F8460084F81F
:101C50003E0084F83F0084F8400084F8410084F896
:101C6000420084F8430084F8440084F8450084F876
:101C70003D00002010BD000008B5174A0168174854
:101C8000914207D1816941F400618161806900F46A
:101C900000601EE0124A914211D1C16941F0100169
:101CA000C161C069002200F01000009001213620BF
:101CB000FFF722FCBDE808403620FFF70FBC094AB9
:101CC000914207D1816941F400518161806900F43A
:101CD0000050009008BD0000002C014000100240A0
:101CE000001000400034014090F83D10012901D05F
:101CF00001207047022180F83D100168CA6842F057
:101D00000102CA6000680E4988420ED00D4988421F
:101D10000BD0B0F1804F08D00B49884205D00B4959
:101D2000884202D00A49884204D1816801F0070143
:101D3000062903D0016841F00101016000207047CD
:101D4000002C014000340140000400400008004025
:101D5000000C004070B5044690F83C0000250128B6
:101D600017D0012684F83C60022084F83D002068EA
:101D7000826822F0770222F47F428260086850284D
:101D800038D00DDC20284FD005DC90B3102811D1BD
:101D90004AE0022070BD302846D040280AD13BE0FE
:101DA00060282FD070280DD0B0F5805F03D0B0F53B
:101DB000005F12D0012584F83D60002084F83C00CB
:101DC000284670BDCB68D1E90121206801F0F5F803
:101DD0002068816841F0770109E0CB68D1E90121F1
:101DE000206801F0EAF82068816841F48041816050
:101DF000E1E719E0CA684968206801F0B3F95021A9
:101E0000206806E0CA684968206801F0BCF96021D2
:101E1000206801F0DCF8CEE7CA684968206801F064
:101E2000A1F940212068F4E7226801461046F0E756
:101E30002DE9F0410D46040003D094F83D0018B19F
:101E400008E00120BDE8F081002084F83C00204635
:101E500000F040F8022084F83D002068816844F2D8
:101E6000070291438160211D206801F053F8226828
:101E700090689169166A2B68AF69034340F203309A
:101E8000814341EA0721A868EF6908434FF6FC4106
:101E90008843E96840EA0720014328692F6A000166
:101EA00040EA0730084369686D6926F0220646EA71
:101EB0000515294393602268906154F8460B01622E
:101EC000012004F81F09E0752076E0762077A075E0
:101ED0000020B7E730B585B0002500950195029543
:101EE0000395026851495248524CB2F1804F21D0BB
:101EF000514B9A4253D1CA6942F00202CA61CA697F
:101F000002F0020204928A6942F004028A6189693D
:101F100001F004010491C02100916946FFF784F9A2
:101F2000002211461D20FFF7E7FA1D20FFF7D6FA21
:101F300005B030BDCA6942F00102CA61CA6902F047
:101F4000010204928A6942F004028A618A6902F0FD
:101F5000040204928A6942F008028A61896901F0E8
:101F6000080104914FF4004100916946FFF75CF9C4
:101F70000820CDE90005694630480295FFF754F97D
:101F8000606820F4407040F0E06040F48070606071
:101F9000002211461C20FFF7AFFA1C20C6E7284B91
:101FA0009A4223D1C86940F00400C861C86900F0B2
:101FB00004000490886940F02000886188696946BF
:101FC00000F0200004904FF4405000901D48FFF7AF
:101FD0002BF9606840F0E06040F4805060600022BF
:101FE00011461E20FFF788FA1E209FE7164B9A42E3
:101FF0009ED1CA6942F00802CA61CA6902F00802A9
:1020000004928A6942F004028A61896901F004013C
:102010000491032100916946FFF706F90022114659
:102020003220FFF769FA322080E7000000100240FA
:10203000000801400000014000040040000C014085
:102040000008004000140140000C004070B590F8FA
:102050003E60044690F83F5090F8423090F843209C
:10206000022021B104290ED0012E1BD114E0012E33
:1020700018D1012B16D184F83E0084F842000122C9
:102080000021206820E0012D0CD1012A0AD184F81A
:102090003F0084F8430014E0012D03D1012B01D14E
:1020A000012A01D0012070BD84F83E0084F83F0071
:1020B00084F8420084F8430001220021206800F0E7
:1020C0006FFF01220421206800F06AFF2068016888
:1020D00041F001010160002070BD704770B50446F9
:1020E000006801694FF00005C943890715D4C1682C
:1020F000C943890711D4E91E0161012020772068B6
:1021000080698007204602D0FFF7E7FF04E000F077
:10211000E3F8204600F075F9257720680169C94386
:10212000490717D4C168C943490713D46FF00401A4
:102130000161022020772068806910F4407F2046EA
:1021400002D0FFF7CAFF04E000F0C6F8204600F016
:1021500058F9257720680169C943090716D4C16871
:10216000C943090712D46FF00801016104202077E8
:102170002068C0698007204602D0FFF7AEFF04E068
:1021800000F0AAF8204600F03CF9257720680169A4
:10219000C943C90617D4C168C943C90613D46FF02F
:1021A00010010161082020772068C06910F4407F89
:1021B000204602D0FFF791FF04E000F08DF82046A2
:1021C00000F01FF9257720680169C943C90708D1C4
:1021D000C168C943C90704D1891E0161204600F0C6
:1021E0006BF920680169C943090609D4C168C9436C
:1021F000090605D46FF0800101612046FFF7A4FCB9
:1022000020680169C943490609D4C168C943490620
:1022100005D46FF040010161204600F069F92068A3
:102220000169C94389060BD4C168C943890607D42B
:102230006FF0200101612046BDE87040FFF785BCCA
:1022400070BD000000B585B00021009101910291A0
:1022500003911B4B02681B4802219A421BD18269E1
:1022600042F0400282618069039100F040000490D6
:102270004FF4D440CDE9000169461348FEF7D4FF7E
:102280001248416821F0C00141F0E06141F0C00115
:10229000416005B000BD0E4B9A42FAD1826942F00E
:1022A000100282618069039100F0100004904FF4E5
:1022B0007070CDE9000169460648FEF7B5FFE8E712
:1022C000002C0140001002400018014000000140B5
:1022D0000034014000100140704770B5044690F88A
:1022E0003C0000260D4601280FD0012084F83C0058
:1022F0006AB1042A1DD0082A2FD00C2A3FD001260B
:10230000002084F83C00304670BD022070BD20687B
:1023100000F066FE2068816941F008018161206853
:10232000816921F004018161206881692A69114372
:1023300011E0206800F084FE2068816941F40061AA
:1023400081612068816921F48061816120688169EF
:102350002A6941EA02218161D2E7206800F0A6FEE5
:102360002068C16941F00801C1612068C16921F09C
:102370000401C1612068C1692A69114311E0206824
:1023800000F0C8FE2068C16941F40061C1612068A5
:10239000C16921F48061C1612068C1692A6941EA8B
:1023A0000221C161ACE710B5040003D094F83D00F0
:1023B00010B107E0012010BD002084F83C00204649
:1023C00000F01EF8022084F83D00211D206800F076
:1023D000A1FD012084F8460084F83E0084F83F0007
:1023E00084F8400084F8410084F8420084F84300F7
:1023F00084F8440084F8450084F83D00002010BDB6
:102400007047704710B50446022249B104290ED026
:10241000082913D094F84100012816D0012010BDDE
:1024200094F83E000128F9D184F83E200FE094F89A
:102430003F000128F2D184F83F2008E094F84000E2
:102440000128EBD184F8402001E084F841200122EA
:10245000206800F0A5FD13492068134A884201D086
:10246000904203D1436C43F40043436420688842A4
:102470000DD090420BD0B0F1804F08D00B4988426C
:1024800005D00B49884202D00A49884204D18168AC
:1024900001F00701062903D0016841F00101016044
:1024A000002010BD002C0140003401400004004019
:1024B00000080040000C004010B500680849884240
:1024C00002D10848FEF794FC074800680068C1067E
:1024D0000648018801D5491E00E0491C018010BD55
:1024E0000010004000409C45E80000200000002053
:1024F0007047704770470000F8B5016804460868E7
:10250000CA684B6910F00F0F4FF000055AD003F066
:10251000010602F49077374365D0C10705D0D10595
:1025200003D5616C41F001016164410705D5D9070C
:1025300003D0616C41F002016164810705D5D907C0
:1025400003D0616C41F004016164010707D502F01A
:102550002001314303D0616C41F008016164616C7A
:1025600000293BD0800604D5900602D5204600F015
:102570004BFE20684069616CC0F3801001F00801D7
:10258000014320462BD000F018FE20684069400629
:1025900021D52068143050E8001F21F0400140E8A8
:1025A0000012002AF5D1E06BA8B16D494163E06BE0
:1025B000FEF7A2FD002811D0E06B416B01B0BDE831
:1025C000F040084783060ED593060CD52046BDE89B
:1025D000F84000F019BE2046FFF78CFFF8BDFFF76A
:1025E00089FF6564F8BD266B2023012E7CD1C606C9
:1025F0007AD5D60678D508684868009048694FF0C3
:102600000206400640D5E16B086840680004000CF3
:10261000E8D0A28D8242E5D9E085886920282DD0B6
:1026200020680C3050E8001F21F4807140E800124F
:10263000002AF5D12168143151E8000F20F0010083
:1026400041E80002002AF5D12068143050E8001F4C
:1026500021F0400140E80012002AF5D184F8423010
:10266000256320680C3050E8001F21F0100140E87D
:102670000012002AF5D1E06BFEF71AFD6663A08D0B
:10268000E18D401A81B22AE0A08DE18D401A81B21D
:10269000E08D0028A6D00029A4D022680C3252E890
:1026A000000F20F4907042E80007002FF5D1206859
:1026B000143050E8002F22F0010240E80027002FDC
:1026C000F5D184F84230256320680C3050E8002FA3
:1026D00022F0100240E80023002BF5D1666320466B
:1026E000FFF707FFF8BDFFE705062BD5150629D52F
:1026F00094F841002128F5D1A068B0F5805F01D1A0
:102700002069B0B1206A411C2162216800784860CC
:10271000E08C401E0004000CE084E3D12068C16816
:1027200021F08001C1602068C16841F04001C160B2
:10273000D8E7206A0088C0F308004860206A801C3F
:102740002062E5E74006CDD55006CBD5CA682046C5
:1027500022F04002CA6084F8413000F076F8C1E708
:10276000AB31000870B5040004D094F84100002596
:1027700010B106E0012070BD84F84050204600F002
:1027800023F8242084F841002068C16821F4005116
:10279000C160204600F09AFD2068016921F4904153
:1027A00001612068416921F02A0141612068C16806
:1027B00041F40051C1606564202084F8410084F830
:1027C00042006563002070BD30B585B000240094E0
:1027D0000194029403940068184988422CD1184847
:1027E000816941F480418161816901F480410491F2
:1027F000816941F0040181618069124D00F004009B
:1028000004904FF400700090022001900320039088
:1028100069462846FEF708FD2815CDE900046946FB
:1028200028460294FEF700FD002211462520FEF7FF
:1028300063FE2520FEF752FE05B030BD0038014092
:10284000001002400008014070477047FEE700009A
:102850003EB5002411480094019402940E4984600E
:10286000016001250573047505614FF46021446022
:10287000C161FEF75FFB08B1FEF7B8FA0220CDE9AF
:102880000005694602940548FEF7D6FA002801D0F3
:10289000FEF7ACFA3EBD00000024014028000020F5
:1028A000154808B5816941F004018161816901F031
:1028B00004010091816941F040018161816901F069
:1028C00040010091816941F020018161816901F03D
:1028D00020010091816941F010018161816901F05D
:1028E00010010091816941F008018161806900F067
:1028F0000800009008BD00000010024010B596B01E
:1029000000240F9410941194129413941C2168467F
:102910001494FDF78FFC202107A8FDF78BFC3548A8
:10292000334901604721C0E901144FF47A71C0E9CD
:1029300003148021C0E90541FFF770F908B1FEF7E3
:1029400055FA4FF480500F900FA92A48FFF702FA6A
:1029500008B1FEF74BFA2748FFF725FD08B1FEF74F
:1029600045FA139413A923481494FFF719F908B1F1
:10297000FEF73CFA6020CDE900040294039404942D
:102980000594002269461B480694FFF7A6FC08B18F
:10299000FEF72CFA042269461648FFF79EFC08B1A0
:1029A000FEF724FA082269461248FFF796FC08B1A0
:1029B000FEF71CFA0C2269460E48FFF78EFC08B1A0
:1029C000FEF714FA0794089409944FF400500A94FF
:1029D000CDE90B4007A907480E94FFF7B7F808B1F7
:1029E000FEF704FA0348FFF72DFC16B010BD0000F7
:1029F000002C01405800002010B58CB024216846FE
:102A0000FDF718FC0024154809944FF080410A9402
:102A100001600321C0E901144FF6FF72C0E90324ED
:102A2000846100910120CDE9014003940494CDE933
:102A300005400794694609480894FFF7F9F908B179
:102A4000FEF7D4F9099409A904480A94FFF7A8F8F5
:102A5000002801D0FEF7CAF90CB010BDA00000207C
:102A600010B58CB024216846FDF7E4FB002416481D
:102A7000099414490A9401600321C0E901144FF636
:102A8000FF72C0E903248022826100910120CDE918
:102A9000014003940494CDE90540079469460A482F
:102AA0000894FFF7C5F908B1FEF7A0F9099409A940
:102AB00005480A94FFF774F8002801D0FEF796F94C
:102AC0000CB010BD00040040E800002010B58CB030
:102AD00024216846FDF7AEFB0024164809941449EA
:102AE0000A9401600321C0E901144FF6FF72C0E9A6
:102AF00003248022826100910120CDE901400394EA
:102B00000494CDE90540079469460A480894FFF704
:102B10008FF908B1FEF76AF9099409A905480A94E2
:102B2000FFF73EF8002801D0FEF760F90CB010BDA9
:102B3000000800403001002010B58CB02421684608
:102B4000FDF778FB00241648099414490A940160A3
:102B50000321C0E901144FF6FF72C0E9032480226B
:102B6000826100910120CDE9014003940494CDE9F4
:102B70000540079469460A480894FFF759F908B1D7
:102B8000FEF734F9099409A905480A94FFF708F8F3
:102B9000002801D0FEF72AF90CB010BD000C00404F
:102BA000780100201CB500240F4800940D490194C1
:102BB00001604721C0E901144FF47A71C16080219E
:102BC0008161FFF72BF808B1FEF710F90094694610
:102BD00005480194FEF7E4FF002801D0FEF706F94E
:102BE0001CBD000000100040C001002030B595B0B1
:102BF00000240F9410941194129413941C2168468D
:102C00001494FDF717FB202107A8FDF713FB384D9F
:102C1000364828604720C5E901044FF47A70C5E9B9
:102C200003048020C5E905402846FEF7F7FF08B1F8
:102C3000FEF7DCF84FF480500F900FA92C48FFF7F7
:102C400089F808B1FEF7D2F82948FFF7ACFB08B1C4
:102C5000FEF7CCF8139413A925481494FEF7A0FFAF
:102C600008B1FEF7C3F86020CDE900040420029407
:102C7000CDE903400594002269461D480694FFF7FC
:102C80002CFB08B1FEF7B2F8042269461848FFF79A
:102C900024FB08B1FEF7AAF82868816921F40061D5
:102CA0008161082269461248FFF717FB08B1FEF759
:102CB0009DF80C2269460E48FFF70FFB08B1FEF79E
:102CC00095F80794089409944FF400500A94CDE9BC
:102CD0000B4007A906480E94FEF738FF08B1FEF72F
:102CE00085F80348FFF7AEFA15B030BD0034014057
:102CF000080200200C4810B50A4901604FF4E13188
:102D00004160002181600C22C160C0E90412816130
:102D1000C161FFF727FD002803D0BDE81040FEF792
:102D200065B810BD0038014050020020FEE70000E9
:102D300070B50C4D0024286844630B49D1E90201A9
:102D400000F052FC296888632968C86329680C640C
:102D500006490A6854630A6890630A68D063086881
:102D6000046470BD58000020B80200200802002052
:102D70000C4910B5D1E9020100F036FC0A4A11688D
:102D800048631368002199631368D963126810645B
:102D9000064A13685863136899631368D963116806
:102DA000086410BDB802002058000020080200206E
:102DB000FEE7000010B508A0FDF730FA0B4800212F
:102DC000016041608160C160C161094901610949D7
:102DD00041610949816110BD5049445F696E697460
:102DE00020626567696E200A0000000098020020DA
:102DF0000AD7233CCDCC4C3F0AD7233D2DE9F041E7
:102E0000134C216800F0F4FF0546A0602946E069F4
:102E100000F0CAFDE06107462846E16800F0F2FFD5
:102E2000A16900F019FF06463946606900F014FFF9
:102E300007462946206900F00FFF394600F0B4FD2F
:102E4000314600F0B1FDE5606060BDE8F081000052
:102E50009802002070477047FEF7E8BA30B595B089
:102E600028216846FDF7E6F914210AA8FDF7E2F9E2
:102E700018210FA8FDF7DEF901210804CDE90010A3
:102E80000025029502240491CDE907404FF4E0109B
:102E900009906846FEF7B4FC08B172B6FEE70AA9CD
:102EA0000F2081E831004FF48060CDE90D0502214B
:102EB0000AA8FEF7C9FB08B172B6FEE74FF400405E
:102EC00011900F940FA8FEF749FB002801D072B6AD
:102ED000FEE715B030BD70470148FFF7FFB80000AE
:102EE000A00000200148FFF7F9B80000E80000202A
:102EF0000148FFF7F3B80000300100200148FFF758
:102F0000EDB80000780100200148FFF7E7B80000A5
:102F1000C0010020F0B502681C4B1D4D1D4E1E4F18
:102F20001E4C4FF0804C984209D0A04207D060451B
:102F300005D0A84203D0B04201D0B84204D122F05B
:102F4000700E4A6842EA0E02984209D0A04207D0A9
:102F5000604505D0A84203D0B04201D0B84203D1A9
:102F600022F44075CA682A434D6922F080022A4340
:102F700002608A68C2620A688262984201D0A042F6
:102F800001D10969016301214161F0BD002C0140BB
:102F90000004004000080040000C004000340140E4
:102FA00010B501F01F030121046A99408C430462AB
:102FB000016A9A401143016210BD10B5846842EA6B
:102FC000032224F47F440A432243826010BD8268B6
:102FD00022F070020A4342F007018160704700004E
:102FE000F0B5036A026A22F0010202624268846953
:102FF000124E24F073050C682C4323F002058B68F5
:103000002B430D4DA84201D0B04205D123F0080753
:10301000CB683B4323F00403A84201D0B04205D162
:103020004D6922F4407215438A692A4342608461E3
:10303000496841630362F0BD002C01400034014047
:10304000F0B5026A036A23F01003036243688469DF
:103050000D6824F4E64444EA05248D6822F0200239
:1030600042EA05120F4D104EA84201D0B04206D1DF
:10307000CF6822F0800242EA071222F04002A84202
:1030800001D0B04207D14D6923F4406343EA850380
:103090008D6943EA85034360846149688163026204
:1030A000F0BD0000002C014000340140F0B5026A80
:1030B000036A23F4807303624368C46922F40072D4
:1030C00024F073050C68124E2C438D6842EA0522E9
:1030D0000E4DA84201D0B04206D1CF6822F4006262
:1030E00042EA072222F48062A84201D0B04207D10E
:1030F0004D6923F4405343EA05138D6943EA0513F0
:103100004360C4614968C1630262F0BD002C0140A4
:103110000034014030B5046A026A22F4805202622F
:103120004268C3690D6823F4E64343EA05238D68CA
:1031300024F4005444EA0534084DA84202D0084D56
:10314000A84204D14D6922F4804242EA85124260CD
:10315000C36149680164046230BD0000002C014075
:103160000034014010B5036A046A24F001040462CB
:10317000846924F0F00444EA021423F00A020A43AA
:103180008461026210BD10B5036A046A24F0100461
:103190000462846923F0A00324F4704444EA0232F8
:1031A00043EA01118261016210BD10B5406A00213D
:1031B000C185C184FFF79EF910BD01680C3151E84B
:1031C000002F22F4907241E80023002BF5D1016812
:1031D000143151E8002F22F0010241E80023002BB6
:1031E000F5D1016B012909D101680C3151E8002F9B
:1031F00022F0100241E80023002BF5D1202180F8B5
:10320000421000210163704708B590F8421022294E
:1032100001D0022008BD82684FF480539A4201D148
:10322000016921B1816A9A421BD04AB10AE0026861
:10323000816A5268C2F308020A80816A891C08E028
:10324000026972B10268526802F07F020A70816AF4
:10325000491C8162C18D491E0904090CC18503D036
:103260001BE002685268F1E70168CA6822F0200298
:10327000CA600168CA6822F48072CA6001684A693B
:1032800022F001024A61202180F8421000214163AE
:10329000026B012A03D0FFF7D7FA002008BD0163B3
:1032A00001680C3151E8002F22F0100241E80023A0
:1032B000002BF5D101680A68D20602D50A68496870
:1032C0000091818DFFF715F9E7E7000070B504461E
:1032D00000680169E26821F44051114301612169EC
:1032E000A0680843616908432168CA6841F20C6319
:1032F0009A430243CA6020684169A26921F440717F
:10330000114341611E492068884202D1FEF742FA0A
:1033100001E0FEF72FFA00EBC00101EB001260683C
:1033200064218000B2FBF0F3B3FBF1F36FF01806F9
:103330007343B2FBF0F5B2FBF0F605EB83053223E5
:1033400003EB0515B5FBF1F5B6FBF1F605F0F0055D
:1033500005EB0615B2FBF0F6B2FBF0F0B0FBF1F0B6
:103360006FF01802504306EB800003EB0010B0FB37
:10337000F1F0216800F00F002844886070BD000063
:10338000003801400148FFF7B7B8000050020020A4
:10339000FEE70907090E002804DB00F1E02080F8B1
:1033A0000014704700F00F0000F1E02080F8141DB9
:1033B0007047000010B5084900F04EFC074900F0C6
:1033C00055FB00F0C5FA064A064B00F08DF9BDE842
:1033D000104000F09BB80000000050410000FA428D
:1033E0004AD8124DFB2109408A68002A01DCFDF70A
:1033F000A8B8521E8A604A68C0B2531C4B60107055
:1034000070470000FEF71AF8FFF7D4FCFFF726FD1F
:10341000FFF746FAFFF71CFAFFF770FAFFF7ECFA2E
:10342000FFF71EFBFFF752FBFFF786FBFFF7BAFB28
:10343000FFF7DCFBFFF75EFC3C211948FEF706FEB8
:103440003C211848FEF702FE3C211748FEF7FEFD1E
:103450003C211648FEF7FAFD00211548FEF7D2FF81
:1034600004211348FEF7CEFF08211148FEF7CAFFDA
:103470000C210F48FEF7C6FF00210E48FEF7C2FFE1
:1034800004210C48FEF7BEFF08210A48FEF7BAFFE8
:103490000C210848FEF7B6FF0748FEF725FCFEE7BB
:1034A000A0000020E800002030010020780100206A
:1034B0005800002008020020C00100200146002022
:1034C0004FF4FA72914202DC5242914201DA104604
:1034D000704701F13102632AFAD3084670470000B1
:1034E00001480068704700002404004010B500F057
:1034F000A8F8024AC2E9020110BD0000B80200208B
:1035000001490860704700009802002021F0004245
:10351000A2F16052B2F5801F01F0004328BFD2F142
:103520007F6C0BD95FEA001C43EAC20242EB507089
:1035300018BF704728BF20F001007047B2F5801F08
:10354000BCBF184670474FEA410C1CF5001F02D261
:10355000084600F048BC70B500F070F90000008922
:10356000FFF7F6BF4FF00040A0F58000704749100C
:1035700058BFC1F140415B1058BFC3F140438B427B
:10358000EFF30080704700004FEA41034FEA5353C6
:10359000A3F58063D3F11E03C8BFD3F1210C0CDD6A
:1035A0004FF0004242EAC12242EA505232FA03FC92
:1035B0008CEAE17CACEBE1707047102BC4BF0020BB
:1035C000704703F5787CBCF1FF3F04D06FF00042F8
:1035D00082EA2100704770B500F030F949922480EA
:1035E00000207047F2E700004FEA1153A3F5806313
:1035F000D3F11E03A8BFD3F1200C08DB4FF000422B
:1036000042EAC12252EA505232FA03F070470942AC
:103610000BD4102BC4BF0020704703F5787CBCF19D
:10362000FF3F05D04FF0FF3070474FF0000070476C
:1036300070B500F003F900BF499224800020704764
:10364000F0E710F0004248BF4042B0FA80F310FAB1
:1036500003F10AD0C3F11D0303F580634FEA415023
:1036600002EB035202EBD12170474FF0000070478C
:1036700051EA030C17D41CF5801F58BFBCF5801FFE
:1036800000F10680994218BF704708BF904270470A
:1036900007D711F5801F58BF13F5801F19D4994221
:1036A0007047894270471CF5801F08D5BCF5801F04
:1036B000F7D58B4218BF704708BF824270474FF45E
:1036C000001C1CEB410F38BF1CEB430F01D28B4297
:1036D000704770B500F0B2F8922449004FF00051E5
:1036E0004FF08053FFF743BFDFF848C170B51CEAC5
:1036F000111E1EBF1CEA13159EEA0C0F95EA0C0F53
:1037000000F06F8081EA030423EA4C134EEAD47E72
:1037100021EA4C1141F4801143F48013AE44A1FB23
:10372000024CA0FB0365AEF17F7E361955EB0C050C
:10373000A1FB034C4CF10003A0FB021C16EB0C0692
:10374000654153F10003094218BF46F0010613F426
:10375000007F0BD14FEA03314FEA0530340341EAD1
:10376000155140EA16506FF003020AE04FEAC321F8
:103770004FEAC520F40241EA555140EA56506FF035
:10378000020202EB2E4201EB025585EACE710AD00D
:103790005FEA440C18BF24F0004450F1000041F1EE
:1037A000000120EAD47040F2FE7C624500D270BD78
:1037B000A84214BF4FF080444FF04044002E08BF91
:1037C0000024BEF1806FA8BFA1F1C041BDE87040E8
:1037D00080F282804FF0000001F1C04101F0004111
:1037E00070479EEA0C0F0CEA131518BF95EA0C0FF0
:1037F00006D04FF0000081EA030E0EF0004170BDCC
:1038000000F01CF88900013E00F007B800F009B88C
:103810004FEA430C5FEA5C5C08D081EA030100F0E8
:103820005BB84FEA410C5FEA5C5CF6D14FF00000F8
:10383000014970470000FF070000F87F0EF1020EFB
:103840002EF0030E5EF8046B364205D4012A43EBDA
:10385000030515F5001F12D8012841EB010C1CF5DA
:10386000001F0CD80ED14FEAD17C15F5001F0CEBD0
:103870004C0C0CF1020C08BF4CEBD37C04E04FF075
:10388000080C01E04FEAD37C0CEB4C0526FA05F658
:1038900006F00706B6F1040C06D20EEB860CBDE866
:1038A00070404CF0010C6047DFE80CF0090B02029D
:1038B0004FF000414FF00000A1F5002170BD194606
:1038C0001046012851EB010418BFD4F5001484BF41
:1038D000002001F0004170BD0808A0F500114FEA7A
:1038E0003101704753EA010C17D41CF5801F58BFF3
:1038F000BCF5801F00F106808B4218BF704708BFDF
:103900008242704707D713F5801F58BF11F5801FFB
:1039100019D48B4270479B4270471CF5801F08D515
:10392000BCF5801FF7D5994218BF704708BF904279
:1039300070474FF4001C1CEB430F38BF1CEB410FCA
:1039400001D2994270470FB40CBC03BCFFF7C1BE53
:1039500043004FEAD30C4FEA3C0C43401FBF4007E3
:103960000CF1605113F0FE4F70471CF0006F03D153
:1039700000200CF0004170470CF0004343EA507007
:1039800010B540EACC0000F0E8F900BF000000925A
:103990004FEA0001FFF7A0BF4FF000414FF00000D9
:1039A000A1F500217047000090EA010F48BF81F0A7
:1039B000004100F12E82421A3CBF801A89184FEA5A
:1039C000D0524FF07F4C1CEA410FA2EBD15318BFED
:1039D0009CEA026F00F03B804FF0004C4CEA002064
:1039E0004CEA012121FA03FC10EB0C0C1ED202F16F
:1039F000FF325FEA1C2040EBC25038BF70471CF01A
:103A00007F0F4FEA400C18BFBCF17F4F38BF7047A3
:103A1000C3F12003994008BF20F00100BCF17F4FA3
:103A200038BF7047A0F1C04000F0DDB94FEA3C005C
:103A3000000A40EBC25028BF1CF0FF0F4FEA400CB9
:103A4000E6D018BFBCF17F4F38BF7047EAE79CEA69
:103A5000026F05D010EA5C0F08BF00F0004070470D
:103A600010B500F07AF900BF64FBBE3E4FF47F0C46
:103A70001CEAD0121EBF1CEAD11392EA0C0F93EA83
:103A80000C0F00F0858090EA010F48BF42F480726D
:103A900040F4000C41F400002CF07F4120F07F4006
:103AA00000B58142A2EB03020FF2081CACEB504EB2
:103AB000C0F100009EF800E04FEA4E0E00FB0EFC45
:103AC00038BF49004FEA2C1C02F5FA020CFB0EF33A
:103AD0004FEACE1E4FEA112C4FEAC1210EEB635E76
:103AE00042EB22420EFB0CFC4FEA1C5300FB03117D
:103AF0004FEA112C4FEA01310EFB0CFC4FEADC4C73
:103B000000FB0C11C14228BF09184CEB03335DF8D0
:103B100004EB10EB410143EBC250B2F57C0F38BF10
:103B2000704729D512F0F00F1CBF00F1C04000F023
:103B300000407047008182838485868788898B8CCA
:103B40008D8E8F919293959697999A9C9D9FA0A206
:103B5000A3A5A7A8AAACAEB0B2B3B5B7B9BCBEC056
:103B6000C2C5C7C9CCCED1D4D7D9DCDFE2E6E9ECF7
:103B7000F0F3F7FAFE0000004FEA400C0CF1807CF5
:103B8000BCF17E4F28BF7047B0F1C04000F02BB9A8
:103B900090EA010F0CEAD11348BF42F480726245EB
:103BA00038BF634507D213F47F0F16D080EA0100B7
:103BB00000F00040704710B500F0CFF8097EFC3EE1
:103BC00000F005B880EA010000F00040704780EA8C
:103BD000010000F0004000F006B912F47F0F04BFAE
:103BE0000248704780EA010000F0FDB80000C07F85
:103BF00041000B0ED3F19E0208D950F400034FEAA6
:103C0000032323FA02F048BF4042704710B500F08A
:103C1000A4F800BF49922480002070476FF0004252
:103C200082EA20007047000010F0004148BF404287
:103C3000B0FA80F310FA03F2C3F19D030BD051EAFE
:103C4000C35101EB1220530638BF704700F1010049
:103C500008BF20F0010070474FF47F0C1CEAD0121F
:103C60001EBF1CEAD11392EA0C0F93EA0C0F00F06E
:103C7000478090EA010F48BF42F480724FF0004C39
:103C80004CEA00204CEA012102EB0302A0FB0113E5
:103C9000A2F50002002918BF43F001035B0028BF12
:103CA0004FEA330342EB22425FEA132C4CEBC25043
:103CB0002EBFBCEB436FB2F57C0F70474FEA036C2D
:103CC000BCF1004F08BF20F00100B2F57C0F38BFF7
:103CD00070470BD582F0FF0212F5803FC8BF7047D6
:103CE00000F1C040D8BF00F00040704700F5000C64
:103CF0005FEA4C0C48BF7047B0F1C04000F073B8A9
:103D000090EA010F0CEAD11348BF42F48072624579
:103D100038BF634504D280EA010000F000407047DC
:103D200010B500F01AF800BF8900013E00F007B896
:103D300000F009B85FEA410C5FEA1C6C08D080EA29
:103D4000010000F050B85FEA400C5FEA1C6CF6D14D
:103D50004FF00040A0F5800070470EF1020E2EF0EB
:103D6000030E5EF8044B244204D44FEA4102B2F140
:103D70007F4F11D84FEA4003B3F17F4F0CD80ED1DB
:103D80004FEAD07CB2F17F4F0CEB4C0C0CF1020CE3
:103D900008BF4CEBD17C04E04FF0080C01E04FEA87
:103DA000D17C0CEB4C0324FA03F404F00704B4F1C7
:103DB000040C06D20EEB840CBDE810404CF0010C54
:103DC0006047DFE80CF0070802024FF00040A0F562
:103DD000800010BD0846420018BFD2F1807288BF33
:103DE00000F0004010BDFF2141EAD050C0057047EF
:103DF00080F0004090EA010F7FF5DDAD81F00041D9
:103E000000F007B890EA010F48BF81F000413FF58C
:103E1000D2AD421A04D882F00042A0EB0200114455
:103E20004FEAD0524FF07F4C1CEA410FA2EBD15326
:103E300018BF9CEA026F4AD04FF0004C4CEA0020B9
:103E40004CEA012121FA03FCB0EB0C0C0FD412F068
:103E5000FE0F36D05FEA4C001DD5001240EBC25079
:103E600038BF70471CF03F0F18BF70470BE0A2F13E
:103E700001025FEA1C2040EBC25038BF70471CF0C3
:103E80007F0F18BF7047C3F12003994014BF401E35
:103E900020F00100704780084FEA122308BF7047E6
:103EA000B0FA80FCA2EB0C02CCF1280C60FA0CF00A
:103EB00093EA122F04BF00EBC25070474FEAC37061
:103EC0007047130A5FEADC1008BF7047F6E79CEA08
:103ED000026F04D010EA5C0F08BF0020704710B5D5
:103EE000FFF73BFF40DFF63E81F0004070470102E4
:103EF00002030405060708090A0B0C0D0E0F10102B
:103F00000000000000000000010203040607080989
:103F100000000000010203043A7474003A74740053
:103F20003A747400443F000800000020280000009C
:103F30006C0100086C3F000828000020000A000007
:103F400088010008000000000000000000000000E0
:103F50000100000010000000000000000024F40038
:0C3F600000000000000000000000000055
:0400000508000131BD
:00000001FF
